{
  "address": "0x5FbDB2315678afecb367f032d93F642f64180aa3",
  "abi": [
    {
      "inputs": [],
      "stateMutability": "nonpayable",
      "type": "constructor"
    },
    {
      "inputs": [],
      "name": "DonateFactory__CallFailed",
      "type": "error"
    },
    {
      "inputs": [],
      "name": "DonateFactory__NameHasBeenTaken",
      "type": "error"
    },
    {
      "inputs": [],
      "name": "DonateFactory__NotEnoughEth",
      "type": "error"
    },
    {
      "inputs": [],
      "name": "DonateFactory__NotOwner",
      "type": "error"
    },
    {
      "stateMutability": "payable",
      "type": "fallback"
    },
    {
      "inputs": [
        {
          "internalType": "address",
          "name": "_address",
          "type": "address"
        }
      ],
      "name": "AddressToCreatorDetail",
      "outputs": [
        {
          "components": [
            {
              "internalType": "address",
              "name": "campaignAddress",
              "type": "address"
            },
            {
              "internalType": "string",
              "name": "campaignName",
              "type": "string"
            },
            {
              "internalType": "address",
              "name": "creator",
              "type": "address"
            }
          ],
          "internalType": "struct DonateFactory.CreatorDetail",
          "name": "",
          "type": "tuple"
        }
      ],
      "stateMutability": "view",
      "type": "function"
    },
    {
      "inputs": [],
      "name": "balance",
      "outputs": [
        {
          "internalType": "uint256",
          "name": "",
          "type": "uint256"
        }
      ],
      "stateMutability": "view",
      "type": "function"
    },
    {
      "inputs": [
        {
          "internalType": "string",
          "name": "campaignName",
          "type": "string"
        },
        {
          "internalType": "string",
          "name": "_description",
          "type": "string"
        }
      ],
      "name": "createDonate",
      "outputs": [],
      "stateMutability": "payable",
      "type": "function"
    },
    {
      "inputs": [
        {
          "internalType": "address",
          "name": "_address",
          "type": "address"
        }
      ],
      "name": "getAddressToAmountFunded",
      "outputs": [
        {
          "internalType": "uint256",
          "name": "",
          "type": "uint256"
        }
      ],
      "stateMutability": "view",
      "type": "function"
    },
    {
      "inputs": [
        {
          "internalType": "uint256",
          "name": "_index",
          "type": "uint256"
        }
      ],
      "name": "getCampaignAddress",
      "outputs": [
        {
          "internalType": "address",
          "name": "",
          "type": "address"
        }
      ],
      "stateMutability": "view",
      "type": "function"
    },
    {
      "inputs": [
        {
          "internalType": "uint256",
          "name": "_index",
          "type": "uint256"
        }
      ],
      "name": "getCreatorDetails",
      "outputs": [
        {
          "components": [
            {
              "internalType": "address",
              "name": "campaignAddress",
              "type": "address"
            },
            {
              "internalType": "string",
              "name": "campaignName",
              "type": "string"
            },
            {
              "internalType": "address",
              "name": "creator",
              "type": "address"
            }
          ],
          "internalType": "struct DonateFactory.CreatorDetail",
          "name": "",
          "type": "tuple"
        }
      ],
      "stateMutability": "view",
      "type": "function"
    },
    {
      "inputs": [
        {
          "internalType": "uint256",
          "name": "_index",
          "type": "uint256"
        }
      ],
      "name": "getCreatorList",
      "outputs": [
        {
          "internalType": "address",
          "name": "",
          "type": "address"
        }
      ],
      "stateMutability": "view",
      "type": "function"
    },
    {
      "inputs": [
        {
          "internalType": "address",
          "name": "_address",
          "type": "address"
        }
      ],
      "name": "getCreatorToCampaignCreated",
      "outputs": [
        {
          "internalType": "address",
          "name": "",
          "type": "address"
        }
      ],
      "stateMutability": "view",
      "type": "function"
    },
    {
      "inputs": [
        {
          "internalType": "address",
          "name": "_creator",
          "type": "address"
        }
      ],
      "name": "getCreatorToCreatorDetail",
      "outputs": [
        {
          "components": [
            {
              "internalType": "address",
              "name": "campaignAddress",
              "type": "address"
            },
            {
              "internalType": "string",
              "name": "campaignName",
              "type": "string"
            },
            {
              "internalType": "address",
              "name": "creator",
              "type": "address"
            }
          ],
          "internalType": "struct DonateFactory.CreatorDetail",
          "name": "",
          "type": "tuple"
        }
      ],
      "stateMutability": "view",
      "type": "function"
    },
    {
      "inputs": [],
      "name": "getEntranceFee",
      "outputs": [
        {
          "internalType": "uint256",
          "name": "",
          "type": "uint256"
        }
      ],
      "stateMutability": "pure",
      "type": "function"
    },
    {
      "inputs": [
        {
          "internalType": "uint256",
          "name": "_index",
          "type": "uint256"
        }
      ],
      "name": "getFundersList",
      "outputs": [
        {
          "internalType": "address",
          "name": "",
          "type": "address"
        }
      ],
      "stateMutability": "view",
      "type": "function"
    },
    {
      "inputs": [
        {
          "internalType": "uint256",
          "name": "_index",
          "type": "uint256"
        }
      ],
      "name": "getHashedAddressList",
      "outputs": [
        {
          "internalType": "bytes32",
          "name": "",
          "type": "bytes32"
        }
      ],
      "stateMutability": "view",
      "type": "function"
    },
    {
      "inputs": [],
      "name": "getHashedAddressListLength",
      "outputs": [
        {
          "internalType": "uint256",
          "name": "",
          "type": "uint256"
        }
      ],
      "stateMutability": "view",
      "type": "function"
    },
    {
      "inputs": [
        {
          "internalType": "string",
          "name": "_name",
          "type": "string"
        }
      ],
      "name": "getHashedName",
      "outputs": [
        {
          "internalType": "bytes",
          "name": "",
          "type": "bytes"
        }
      ],
      "stateMutability": "view",
      "type": "function"
    },
    {
      "inputs": [
        {
          "internalType": "string",
          "name": "campaignName",
          "type": "string"
        }
      ],
      "name": "getNameToAddress",
      "outputs": [
        {
          "internalType": "address",
          "name": "",
          "type": "address"
        }
      ],
      "stateMutability": "view",
      "type": "function"
    },
    {
      "inputs": [
        {
          "internalType": "uint256",
          "name": "_index",
          "type": "uint256"
        }
      ],
      "name": "getNamesArray",
      "outputs": [
        {
          "internalType": "string",
          "name": "",
          "type": "string"
        }
      ],
      "stateMutability": "view",
      "type": "function"
    },
    {
      "inputs": [
        {
          "internalType": "string",
          "name": "_name",
          "type": "string"
        }
      ],
      "name": "nameToCreatorDetail",
      "outputs": [
        {
          "components": [
            {
              "internalType": "address",
              "name": "campaignAddress",
              "type": "address"
            },
            {
              "internalType": "string",
              "name": "campaignName",
              "type": "string"
            },
            {
              "internalType": "address",
              "name": "creator",
              "type": "address"
            }
          ],
          "internalType": "struct DonateFactory.CreatorDetail",
          "name": "",
          "type": "tuple"
        }
      ],
      "stateMutability": "view",
      "type": "function"
    },
    {
      "inputs": [
        {
          "internalType": "address",
          "name": "_creator",
          "type": "address"
        }
      ],
      "name": "searchByCreator",
      "outputs": [
        {
          "components": [
            {
              "internalType": "address",
              "name": "campaignAddress",
              "type": "address"
            },
            {
              "internalType": "string",
              "name": "campaignName",
              "type": "string"
            },
            {
              "internalType": "address",
              "name": "creator",
              "type": "address"
            }
          ],
          "internalType": "struct DonateFactory.CreatorDetail",
          "name": "",
          "type": "tuple"
        }
      ],
      "stateMutability": "view",
      "type": "function"
    },
    {
      "inputs": [
        {
          "internalType": "string",
          "name": "_campaignName",
          "type": "string"
        }
      ],
      "name": "searchByName",
      "outputs": [
        {
          "components": [
            {
              "internalType": "address",
              "name": "campaignAddress",
              "type": "address"
            },
            {
              "internalType": "string",
              "name": "campaignName",
              "type": "string"
            },
            {
              "internalType": "address",
              "name": "creator",
              "type": "address"
            }
          ],
          "internalType": "struct DonateFactory.CreatorDetail",
          "name": "",
          "type": "tuple"
        }
      ],
      "stateMutability": "view",
      "type": "function"
    },
    {
      "inputs": [
        {
          "internalType": "address",
          "name": "_campaignAddress",
          "type": "address"
        }
      ],
      "name": "serachByCampaignAddress",
      "outputs": [
        {
          "components": [
            {
              "internalType": "address",
              "name": "campaignAddress",
              "type": "address"
            },
            {
              "internalType": "string",
              "name": "campaignName",
              "type": "string"
            },
            {
              "internalType": "address",
              "name": "creator",
              "type": "address"
            }
          ],
          "internalType": "struct DonateFactory.CreatorDetail",
          "name": "",
          "type": "tuple"
        }
      ],
      "stateMutability": "view",
      "type": "function"
    },
    {
      "inputs": [
        {
          "internalType": "uint256",
          "name": "_amount",
          "type": "uint256"
        }
      ],
      "name": "withdraw",
      "outputs": [],
      "stateMutability": "nonpayable",
      "type": "function"
    },
    {
      "stateMutability": "payable",
      "type": "receive"
    }
  ],
  "transactionHash": "0x0f30edd6f8ceb8d8e85bc0716f0c595736dcd86afd66408bfb4d26069b2e0114",
  "args": [],
  "numDeployments": 1,
  "solcInputHash": "cc8cf709a43f33485d730d0d2b6abaf9",
  "bytecode": "0x60c0604052662386f26fc1000060809081525034801561001e57600080fd5b503373ffffffffffffffffffffffffffffffffffffffff1660a08173ffffffffffffffffffffffffffffffffffffffff1660601b8152505060805160a05160601c6135b16100856000396000610a090152600081816106c001526116a801526135b16000f3fe6080604052600436106200014b5760003560e01c8063727658e811620000bb578063c9603ccb1162000079578063c9603ccb1462000513578063ddbbc35c1462000557578063e1231ec5146200059b578063e4e05ce314620005df578063e4f9f1031462000623578063eeb7d48c14620006535762000153565b8063727658e814620003d357806380cdadbb146200041757806389b99dcc146200045b578063b69ef8a8146200049f578063c380236614620004cf5762000153565b806348634cd4116200010957806348634cd4146200027f57806354a1499a14620002c357806362ffaeb314620003075780636387b849146200034b578063713c621a146200038f5762000153565b80630343fb25146200015557806309bc33a71462000199578063277d1bf714620001c95780632bc902f4146200020d5780632e1a7d4d14620002515762000153565b366200015357005b005b3480156200016257600080fd5b506200018160048036038101906200017b919062002094565b62000673565b60405162000190919062002543565b60405180910390f35b348015620001a657600080fd5b50620001b1620006bc565b604051620001c0919062002543565b60405180910390f35b348015620001d657600080fd5b50620001f56004803603810190620001ef919062002094565b620006e4565b6040516200020491906200251f565b60405180910390f35b3480156200021a57600080fd5b506200023960048036038101906200023391906200211b565b62000885565b6040516200024891906200251f565b60405180910390f35b3480156200025e57600080fd5b506200027d6004803603810190620002779190620021f1565b62000a07565b005b3480156200028c57600080fd5b50620002ab6004803603810190620002a59190620021f1565b62000b39565b604051620002ba919062002452565b60405180910390f35b348015620002d057600080fd5b50620002ef6004803603810190620002e9919062002094565b62000b84565b604051620002fe91906200251f565b60405180910390f35b3480156200031457600080fd5b506200033360048036038101906200032d9190620021f1565b62000d25565b604051620003429190620024b0565b60405180910390f35b3480156200035857600080fd5b50620003776004803603810190620003719190620021f1565b62000de0565b6040516200038691906200246f565b60405180910390f35b3480156200039c57600080fd5b50620003bb6004803603810190620003b5919062002094565b62000e0b565b604051620003ca91906200251f565b60405180910390f35b348015620003e057600080fd5b50620003ff6004803603810190620003f9919062002094565b62000fac565b6040516200040e919062002452565b60405180910390f35b3480156200042457600080fd5b506200044360048036038101906200043d91906200211b565b62001015565b6040516200045291906200248c565b60405180910390f35b3480156200046857600080fd5b50620004876004803603810190620004819190620021f1565b6200104a565b60405162000496919062002452565b60405180910390f35b348015620004ac57600080fd5b50620004b762001095565b604051620004c6919062002543565b60405180910390f35b348015620004dc57600080fd5b50620004fb6004803603810190620004f59190620021f1565b620010a2565b6040516200050a91906200251f565b60405180910390f35b3480156200052057600080fd5b506200053f6004803603810190620005399190620020c6565b62001229565b6040516200054e919062002452565b60405180910390f35b3480156200056457600080fd5b506200058360048036038101906200057d91906200211b565b62001276565b6040516200059291906200251f565b60405180910390f35b348015620005a857600080fd5b50620005c76004803603810190620005c19190620021f1565b620013f8565b604051620005d6919062002452565b60405180910390f35b348015620005ec57600080fd5b506200060b600480360381019062000605919062002094565b62001443565b6040516200061a91906200251f565b60405180910390f35b3480156200063057600080fd5b506200063b620015e4565b6040516200064a919062002543565b60405180910390f35b6200067160048036038101906200066b91906200216c565b620015f1565b005b6000600560008373ffffffffffffffffffffffffffffffffffffffff1673ffffffffffffffffffffffffffffffffffffffff168152602001908152602001600020549050919050565b60007f0000000000000000000000000000000000000000000000000000000000000000905090565b620006ee62001e7e565b600960008373ffffffffffffffffffffffffffffffffffffffff1673ffffffffffffffffffffffffffffffffffffffff1681526020019081526020016000206040518060600160405290816000820160009054906101000a900473ffffffffffffffffffffffffffffffffffffffff1673ffffffffffffffffffffffffffffffffffffffff1673ffffffffffffffffffffffffffffffffffffffff168152602001600182018054620007a09062002708565b80601f0160208091040260200160405190810160405280929190818152602001828054620007ce9062002708565b80156200081f5780601f10620007f3576101008083540402835291602001916200081f565b820191906000526020600020905b8154815290600101906020018083116200080157829003601f168201915b505050505081526020016002820160009054906101000a900473ffffffffffffffffffffffffffffffffffffffff1673ffffffffffffffffffffffffffffffffffffffff1673ffffffffffffffffffffffffffffffffffffffff16815250509050919050565b6200088f62001e7e565b600782604051620008a1919062002422565b90815260200160405180910390206040518060600160405290816000820160009054906101000a900473ffffffffffffffffffffffffffffffffffffffff1673ffffffffffffffffffffffffffffffffffffffff1673ffffffffffffffffffffffffffffffffffffffff168152602001600182018054620009229062002708565b80601f0160208091040260200160405190810160405280929190818152602001828054620009509062002708565b8015620009a15780601f106200097557610100808354040283529160200191620009a1565b820191906000526020600020905b8154815290600101906020018083116200098357829003601f168201915b505050505081526020016002820160009054906101000a900473ffffffffffffffffffffffffffffffffffffffff1673ffffffffffffffffffffffffffffffffffffffff1673ffffffffffffffffffffffffffffffffffffffff16815250509050919050565b7f000000000000000000000000000000000000000000000000000000000000000073ffffffffffffffffffffffffffffffffffffffff163373ffffffffffffffffffffffffffffffffffffffff161462000a8d576040517f30e3fbf200000000000000000000000000000000000000000000000000000000815260040160405180910390fd5b60003373ffffffffffffffffffffffffffffffffffffffff168260405162000ab5906200243b565b60006040518083038185875af1925050503d806000811462000af4576040519150601f19603f3d011682016040523d82523d6000602084013e62000af9565b606091505b505090508062000b35576040517f609cfbd000000000000000000000000000000000000000000000000000000000815260040160405180910390fd5b5050565b60006001828154811062000b525762000b5162002820565b5b9060005260206000200160009054906101000a900473ffffffffffffffffffffffffffffffffffffffff169050919050565b62000b8e62001e7e565b600860008373ffffffffffffffffffffffffffffffffffffffff1673ffffffffffffffffffffffffffffffffffffffff1681526020019081526020016000206040518060600160405290816000820160009054906101000a900473ffffffffffffffffffffffffffffffffffffffff1673ffffffffffffffffffffffffffffffffffffffff1673ffffffffffffffffffffffffffffffffffffffff16815260200160018201805462000c409062002708565b80601f016020809104026020016040519081016040528092919081815260200182805462000c6e9062002708565b801562000cbf5780601f1062000c935761010080835404028352916020019162000cbf565b820191906000526020600020905b81548152906001019060200180831162000ca157829003601f168201915b505050505081526020016002820160009054906101000a900473ffffffffffffffffffffffffffffffffffffffff1673ffffffffffffffffffffffffffffffffffffffff1673ffffffffffffffffffffffffffffffffffffffff16815250509050919050565b60606000828154811062000d3e5762000d3d62002820565b5b90600052602060002001805462000d559062002708565b80601f016020809104026020016040519081016040528092919081815260200182805462000d839062002708565b801562000dd45780601f1062000da85761010080835404028352916020019162000dd4565b820191906000526020600020905b81548152906001019060200180831162000db657829003601f168201915b50505050509050919050565b60006003828154811062000df95762000df862002820565b5b90600052602060002001549050919050565b62000e1562001e7e565b600960008373ffffffffffffffffffffffffffffffffffffffff1673ffffffffffffffffffffffffffffffffffffffff1681526020019081526020016000206040518060600160405290816000820160009054906101000a900473ffffffffffffffffffffffffffffffffffffffff1673ffffffffffffffffffffffffffffffffffffffff1673ffffffffffffffffffffffffffffffffffffffff16815260200160018201805462000ec79062002708565b80601f016020809104026020016040519081016040528092919081815260200182805462000ef59062002708565b801562000f465780601f1062000f1a5761010080835404028352916020019162000f46565b820191906000526020600020905b81548152906001019060200180831162000f2857829003601f168201915b505050505081526020016002820160009054906101000a900473ffffffffffffffffffffffffffffffffffffffff1673ffffffffffffffffffffffffffffffffffffffff1673ffffffffffffffffffffffffffffffffffffffff16815250509050919050565b6000600660008373ffffffffffffffffffffffffffffffffffffffff1673ffffffffffffffffffffffffffffffffffffffff16815260200190815260200160002060009054906101000a900473ffffffffffffffffffffffffffffffffffffffff169050919050565b60606000826040516020016200102c9190620024b0565b60405160208183030381529060405280519060200120905050919050565b60006002828154811062001063576200106262002820565b5b9060005260206000200160009054906101000a900473ffffffffffffffffffffffffffffffffffffffff169050919050565b6000804790508091505090565b620010ac62001e7e565b600a8281548110620010c357620010c262002820565b5b90600052602060002090600302016040518060600160405290816000820160009054906101000a900473ffffffffffffffffffffffffffffffffffffffff1673ffffffffffffffffffffffffffffffffffffffff1673ffffffffffffffffffffffffffffffffffffffff168152602001600182018054620011449062002708565b80601f0160208091040260200160405190810160405280929190818152602001828054620011729062002708565b8015620011c35780601f106200119757610100808354040283529160200191620011c3565b820191906000526020600020905b815481529060010190602001808311620011a557829003601f168201915b505050505081526020016002820160009054906101000a900473ffffffffffffffffffffffffffffffffffffffff1673ffffffffffffffffffffffffffffffffffffffff1673ffffffffffffffffffffffffffffffffffffffff16815250509050919050565b6000600483836040516200123f92919062002407565b908152602001604051809103902060009054906101000a900473ffffffffffffffffffffffffffffffffffffffff16905092915050565b6200128062001e7e565b60078260405162001292919062002422565b90815260200160405180910390206040518060600160405290816000820160009054906101000a900473ffffffffffffffffffffffffffffffffffffffff1673ffffffffffffffffffffffffffffffffffffffff1673ffffffffffffffffffffffffffffffffffffffff168152602001600182018054620013139062002708565b80601f0160208091040260200160405190810160405280929190818152602001828054620013419062002708565b8015620013925780601f10620013665761010080835404028352916020019162001392565b820191906000526020600020905b8154815290600101906020018083116200137457829003601f168201915b505050505081526020016002820160009054906101000a900473ffffffffffffffffffffffffffffffffffffffff1673ffffffffffffffffffffffffffffffffffffffff1673ffffffffffffffffffffffffffffffffffffffff16815250509050919050565b60006001828154811062001411576200141062002820565b5b9060005260206000200160009054906101000a900473ffffffffffffffffffffffffffffffffffffffff169050919050565b6200144d62001e7e565b600860008373ffffffffffffffffffffffffffffffffffffffff1673ffffffffffffffffffffffffffffffffffffffff1681526020019081526020016000206040518060600160405290816000820160009054906101000a900473ffffffffffffffffffffffffffffffffffffffff1673ffffffffffffffffffffffffffffffffffffffff1673ffffffffffffffffffffffffffffffffffffffff168152602001600182018054620014ff9062002708565b80601f01602080910402602001604051908101604052809291908181526020018280546200152d9062002708565b80156200157e5780601f1062001552576101008083540402835291602001916200157e565b820191906000526020600020905b8154815290600101906020018083116200156057829003601f168201915b505050505081526020016002820160009054906101000a900473ffffffffffffffffffffffffffffffffffffffff1673ffffffffffffffffffffffffffffffffffffffff1673ffffffffffffffffffffffffffffffffffffffff16815250509050919050565b6000600380549050905090565b81600081604051602001620016079190620024b0565b6040516020818303038152906040528051906020012090506000600380549050905060005b81811015620016a557600381815481106200164c576200164b62002820565b5b906000526020600020015483141562001691576040517f9f76b97200000000000000000000000000000000000000000000000000000000815260040160405180910390fd5b806200169d9062002774565b90506200162c565b507f000000000000000000000000000000000000000000000000000000000000000034101562001701576040517ffe4b298900000000000000000000000000000000000000000000000000000000815260040160405180910390fd5b6000859080600181540180825580915050600190039060005260206000200160009091909190915090805190602001906200173e92919062001ecb565b506002339080600181540180825580915050600190039060005260206000200160009091909190916101000a81548173ffffffffffffffffffffffffffffffffffffffff021916908373ffffffffffffffffffffffffffffffffffffffff16021790555034600560003373ffffffffffffffffffffffffffffffffffffffff1673ffffffffffffffffffffffffffffffffffffffff1681526020019081526020016000206000828254620017f391906200261e565b925050819055506000856040516020016200180f9190620024b0565b60405160208183030381529060405280519060200120905060038190806001815401808255809150506001900390600052602060002001600090919091909150556000868633604051620018639062001f5c565b6200187193929190620024d4565b604051809103906000f0801580156200188e573d6000803e3d6000fd5b5090506001819080600181540180825580915050600190039060005260206000200160009091909190916101000a81548173ffffffffffffffffffffffffffffffffffffffff021916908373ffffffffffffffffffffffffffffffffffffffff160217905550600a60405180606001604052808373ffffffffffffffffffffffffffffffffffffffff1681526020018981526020013373ffffffffffffffffffffffffffffffffffffffff16815250908060018154018082558091505060019003906000526020600020906003020160009091909190915060008201518160000160006101000a81548173ffffffffffffffffffffffffffffffffffffffff021916908373ffffffffffffffffffffffffffffffffffffffff1602179055506020820151816001019080519060200190620019cb92919062001ecb565b5060408201518160020160006101000a81548173ffffffffffffffffffffffffffffffffffffffff021916908373ffffffffffffffffffffffffffffffffffffffff16021790555050508060048860405162001a28919062002422565b908152602001604051809103902060006101000a81548173ffffffffffffffffffffffffffffffffffffffff021916908373ffffffffffffffffffffffffffffffffffffffff16021790555080600660003373ffffffffffffffffffffffffffffffffffffffff1673ffffffffffffffffffffffffffffffffffffffff16815260200190815260200160002060006101000a81548173ffffffffffffffffffffffffffffffffffffffff021916908373ffffffffffffffffffffffffffffffffffffffff16021790555060405180606001604052808273ffffffffffffffffffffffffffffffffffffffff1681526020018881526020013373ffffffffffffffffffffffffffffffffffffffff1681525060078860405162001b4b919062002422565b908152602001604051809103902060008201518160000160006101000a81548173ffffffffffffffffffffffffffffffffffffffff021916908373ffffffffffffffffffffffffffffffffffffffff160217905550602082015181600101908051906020019062001bbe92919062001ecb565b5060408201518160020160006101000a81548173ffffffffffffffffffffffffffffffffffffffff021916908373ffffffffffffffffffffffffffffffffffffffff16021790555090505060405180606001604052808273ffffffffffffffffffffffffffffffffffffffff1681526020018881526020013373ffffffffffffffffffffffffffffffffffffffff16815250600860008373ffffffffffffffffffffffffffffffffffffffff1673ffffffffffffffffffffffffffffffffffffffff16815260200190815260200160002060008201518160000160006101000a81548173ffffffffffffffffffffffffffffffffffffffff021916908373ffffffffffffffffffffffffffffffffffffffff160217905550602082015181600101908051906020019062001cf492919062001ecb565b5060408201518160020160006101000a81548173ffffffffffffffffffffffffffffffffffffffff021916908373ffffffffffffffffffffffffffffffffffffffff16021790555090505060405180606001604052808273ffffffffffffffffffffffffffffffffffffffff1681526020018881526020013373ffffffffffffffffffffffffffffffffffffffff16815250600960003373ffffffffffffffffffffffffffffffffffffffff1673ffffffffffffffffffffffffffffffffffffffff16815260200190815260200160002060008201518160000160006101000a81548173ffffffffffffffffffffffffffffffffffffffff021916908373ffffffffffffffffffffffffffffffffffffffff160217905550602082015181600101908051906020019062001e2a92919062001ecb565b5060408201518160020160006101000a81548173ffffffffffffffffffffffffffffffffffffffff021916908373ffffffffffffffffffffffffffffffffffffffff16021790555090505050505050505050565b6040518060600160405280600073ffffffffffffffffffffffffffffffffffffffff16815260200160608152602001600073ffffffffffffffffffffffffffffffffffffffff1681525090565b82805462001ed99062002708565b90600052602060002090601f01602090048101928262001efd576000855562001f49565b82601f1062001f1857805160ff191683800117855562001f49565b8280016001018555821562001f49579182015b8281111562001f4857825182559160200191906001019062001f2b565b5b50905062001f58919062001f6a565b5090565b610c9780620028e583390190565b5b8082111562001f8557600081600090555060010162001f6b565b5090565b600062001fa062001f9a8462002589565b62002560565b90508281526020810184848401111562001fbf5762001fbe6200288d565b5b62001fcc848285620026c3565b509392505050565b60008135905062001fe581620028b0565b92915050565b60008083601f84011262002004576200200362002883565b5b8235905067ffffffffffffffff8111156200202457620020236200287e565b5b60208301915083600182028301111562002043576200204262002888565b5b9250929050565b600082601f83011262002062576200206162002883565b5b81356200207484826020860162001f89565b91505092915050565b6000813590506200208e81620028ca565b92915050565b600060208284031215620020ad57620020ac62002897565b5b6000620020bd8482850162001fd4565b91505092915050565b60008060208385031215620020e057620020df62002897565b5b600083013567ffffffffffffffff81111562002101576200210062002892565b5b6200210f8582860162001feb565b92509250509250929050565b60006020828403121562002134576200213362002897565b5b600082013567ffffffffffffffff81111562002155576200215462002892565b5b62002163848285016200204a565b91505092915050565b6000806040838503121562002186576200218562002897565b5b600083013567ffffffffffffffff811115620021a757620021a662002892565b5b620021b5858286016200204a565b925050602083013567ffffffffffffffff811115620021d957620021d862002892565b5b620021e7858286016200204a565b9150509250929050565b6000602082840312156200220a576200220962002897565b5b60006200221a848285016200207d565b91505092915050565b6200222e816200267b565b82525050565b6200223f816200267b565b82525050565b62002250816200268f565b82525050565b60006200226382620025bf565b6200226f8185620025d5565b935062002281818560208601620026d2565b6200228c816200289c565b840191505092915050565b6000620022a5838562002613565b9350620022b4838584620026c3565b82840190509392505050565b6000620022cd82620025ca565b620022d98185620025f1565b9350620022eb818560208601620026d2565b620022f6816200289c565b840191505092915050565b60006200230e82620025ca565b6200231a818562002602565b93506200232c818560208601620026d2565b62002337816200289c565b840191505092915050565b60006200234f82620025ca565b6200235b818562002613565b93506200236d818560208601620026d2565b80840191505092915050565b600062002388600083620025e6565b91506200239582620028ad565b600082019050919050565b6000606083016000830151620023ba600086018262002223565b5060208301518482036020860152620023d48282620022c0565b9150506040830151620023eb604086018262002223565b508091505092915050565b6200240181620026b9565b82525050565b60006200241682848662002297565b91508190509392505050565b600062002430828462002342565b915081905092915050565b6000620024488262002379565b9150819050919050565b600060208201905062002469600083018462002234565b92915050565b600060208201905062002486600083018462002245565b92915050565b60006020820190508181036000830152620024a8818462002256565b905092915050565b60006020820190508181036000830152620024cc818462002301565b905092915050565b60006060820190508181036000830152620024f0818662002301565b9050818103602083015262002506818562002301565b905062002517604083018462002234565b949350505050565b600060208201905081810360008301526200253b8184620023a0565b905092915050565b60006020820190506200255a6000830184620023f6565b92915050565b60006200256c6200257f565b90506200257a82826200273e565b919050565b6000604051905090565b600067ffffffffffffffff821115620025a757620025a66200284f565b5b620025b2826200289c565b9050602081019050919050565b600081519050919050565b600081519050919050565b600082825260208201905092915050565b600081905092915050565b600082825260208201905092915050565b600082825260208201905092915050565b600081905092915050565b60006200262b82620026b9565b91506200263883620026b9565b9250827fffffffffffffffffffffffffffffffffffffffffffffffffffffffffffffffff0382111562002670576200266f620027c2565b5b828201905092915050565b6000620026888262002699565b9050919050565b6000819050919050565b600073ffffffffffffffffffffffffffffffffffffffff82169050919050565b6000819050919050565b82818337600083830152505050565b60005b83811015620026f2578082015181840152602081019050620026d5565b8381111562002702576000848401525b50505050565b600060028204905060018216806200272157607f821691505b60208210811415620027385762002737620027f1565b5b50919050565b62002749826200289c565b810181811067ffffffffffffffff821117156200276b576200276a6200284f565b5b80604052505050565b60006200278182620026b9565b91507fffffffffffffffffffffffffffffffffffffffffffffffffffffffffffffffff821415620027b757620027b6620027c2565b5b600182019050919050565b7f4e487b7100000000000000000000000000000000000000000000000000000000600052601160045260246000fd5b7f4e487b7100000000000000000000000000000000000000000000000000000000600052602260045260246000fd5b7f4e487b7100000000000000000000000000000000000000000000000000000000600052603260045260246000fd5b7f4e487b7100000000000000000000000000000000000000000000000000000000600052604160045260246000fd5b600080fd5b600080fd5b600080fd5b600080fd5b600080fd5b600080fd5b6000601f19601f8301169050919050565b50565b620028bb816200267b565b8114620028c757600080fd5b50565b620028d581620026b9565b8114620028e157600080fd5b5056fe60806040523480156200001157600080fd5b5060405162000c9738038062000c97833981810160405281019062000037919062000282565b80600360006101000a81548173ffffffffffffffffffffffffffffffffffffffff021916908373ffffffffffffffffffffffffffffffffffffffff1602179055508260059080519060200190620000909291906200013d565b508160049080519060200190620000a99291906200013d565b503073ffffffffffffffffffffffffffffffffffffffff16600360009054906101000a900473ffffffffffffffffffffffffffffffffffffffff1673ffffffffffffffffffffffffffffffffffffffff167fb0c23c661f7a83f4f85f6009189862c40156b6a2676806c56313762b8ef05d2160046040516200012c9190620003a8565b60405180910390a3505050620005c4565b8280546200014b90620004bb565b90600052602060002090601f0160209004810192826200016f5760008555620001bb565b82601f106200018a57805160ff1916838001178555620001bb565b82800160010185558215620001bb579182015b82811115620001ba5782518255916020019190600101906200019d565b5b509050620001ca9190620001ce565b5090565b5b80821115620001e9576000816000905550600101620001cf565b5090565b600062000204620001fe84620003f5565b620003cc565b9050828152602081018484840111156200022357620002226200058a565b5b6200023084828562000485565b509392505050565b6000815190506200024981620005aa565b92915050565b600082601f83011262000267576200026662000585565b5b815162000279848260208601620001ed565b91505092915050565b6000806000606084860312156200029e576200029d62000594565b5b600084015167ffffffffffffffff811115620002bf57620002be6200058f565b5b620002cd868287016200024f565b935050602084015167ffffffffffffffff811115620002f157620002f06200058f565b5b620002ff868287016200024f565b9250506040620003128682870162000238565b9150509250925092565b600081546200032b81620004bb565b62000337818662000440565b9450600182166000811462000355576001811462000368576200039f565b60ff19831686526020860193506200039f565b62000373856200042b565b60005b83811015620003975781548189015260018201915060208101905062000376565b808801955050505b50505092915050565b60006020820190508181036000830152620003c481846200031c565b905092915050565b6000620003d8620003eb565b9050620003e68282620004f1565b919050565b6000604051905090565b600067ffffffffffffffff82111562000413576200041262000556565b5b6200041e8262000599565b9050602081019050919050565b60008190508160005260206000209050919050565b600082825260208201905092915050565b60006200045e8262000465565b9050919050565b600073ffffffffffffffffffffffffffffffffffffffff82169050919050565b60005b83811015620004a557808201518184015260208101905062000488565b83811115620004b5576000848401525b50505050565b60006002820490506001821680620004d457607f821691505b60208210811415620004eb57620004ea62000527565b5b50919050565b620004fc8262000599565b810181811067ffffffffffffffff821117156200051e576200051d62000556565b5b80604052505050565b7f4e487b7100000000000000000000000000000000000000000000000000000000600052602260045260246000fd5b7f4e487b7100000000000000000000000000000000000000000000000000000000600052604160045260246000fd5b600080fd5b600080fd5b600080fd5b600080fd5b6000601f19601f8301169050919050565b620005b58162000451565b8114620005c157600080fd5b50565b6106c380620005d46000396000f3fe60806040526004361061004e5760003560e01c80630fa91fa9146100675780632e1a7d4d146100a45780633e05f0f5146100cd578063ed88c68e1461010a578063f8b2cb4f146101145761005d565b3661005d5761005b610151565b005b610065610151565b005b34801561007357600080fd5b5061008e60048036038101906100899190610528565b61025f565b60405161009b91906105ab565b60405180910390f35b3480156100b057600080fd5b506100cb60048036038101906100c69190610528565b6102a7565b005b3480156100d957600080fd5b506100f460048036038101906100ef91906104fb565b610462565b60405161010191906105c6565b60405180910390f35b610112610151565b005b34801561012057600080fd5b5061013b600480360381019061013691906104fb565b6104ab565b60405161014891906105c6565b60405180910390f35b6002339080600181540180825580915050600190039060005260206000200160009091909190916101000a81548173ffffffffffffffffffffffffffffffffffffffff021916908373ffffffffffffffffffffffffffffffffffffffff16021790555034600160003373ffffffffffffffffffffffffffffffffffffffff1673ffffffffffffffffffffffffffffffffffffffff168152602001908152602001600020819055503073ffffffffffffffffffffffffffffffffffffffff163373ffffffffffffffffffffffffffffffffffffffff167f702ce8e2a7e3a8bc7ba50d9187386c652637c1e0a97f4c8ad4c2481e1ae0861a3460405161025591906105c6565b60405180910390a3565b60006002828154811061027557610274610628565b5b9060005260206000200160009054906101000a900473ffffffffffffffffffffffffffffffffffffffff169050919050565b600360009054906101000a900473ffffffffffffffffffffffffffffffffffffffff1673ffffffffffffffffffffffffffffffffffffffff163373ffffffffffffffffffffffffffffffffffffffff161461032e576040517fe0e48fa400000000000000000000000000000000000000000000000000000000815260040160405180910390fd5b60008190503073ffffffffffffffffffffffffffffffffffffffff16600360009054906101000a900473ffffffffffffffffffffffffffffffffffffffff1673ffffffffffffffffffffffffffffffffffffffff167f60a3bf8490aa32c80db056237a7c8321c0a03596ab5a9dffe3f32151b7254fb7836040516103b291906105c6565b60405180910390a360003373ffffffffffffffffffffffffffffffffffffffff16826040516103e090610596565b60006040518083038185875af1925050503d806000811461041d576040519150601f19603f3d011682016040523d82523d6000602084013e610422565b606091505b505090508061045d576040517faaf2e54b00000000000000000000000000000000000000000000000000000000815260040160405180910390fd5b505050565b6000600160008373ffffffffffffffffffffffffffffffffffffffff1673ffffffffffffffffffffffffffffffffffffffff168152602001908152602001600020549050919050565b6000808273ffffffffffffffffffffffffffffffffffffffff1631905080915050919050565b6000813590506104e08161065f565b92915050565b6000813590506104f581610676565b92915050565b60006020828403121561051157610510610657565b5b600061051f848285016104d1565b91505092915050565b60006020828403121561053e5761053d610657565b5b600061054c848285016104e6565b91505092915050565b61055e816105ec565b82525050565b60006105716000836105e1565b915061057c8261065c565b600082019050919050565b6105908161061e565b82525050565b60006105a182610564565b9150819050919050565b60006020820190506105c06000830184610555565b92915050565b60006020820190506105db6000830184610587565b92915050565b600081905092915050565b60006105f7826105fe565b9050919050565b600073ffffffffffffffffffffffffffffffffffffffff82169050919050565b6000819050919050565b7f4e487b7100000000000000000000000000000000000000000000000000000000600052603260045260246000fd5b600080fd5b50565b610668816105ec565b811461067357600080fd5b50565b61067f8161061e565b811461068a57600080fd5b5056fea264697066735822122079ee3edd90c387462b15042e5f3201380d94e9c1c6d004605177f0f07edc587064736f6c63430008070033a26469706673582212204fe4ea82a04bdf4b4f87d5564344d522ae193fbfbf5ec27590af0c8b9da59bbb64736f6c63430008070033",
  "devdoc": {
    "author": "Olaoye Salem",
    "kind": "dev",
    "methods": {
      "createDonate(string,string)": {
        "params": {
          "_description": "the need for the fundraising",
          "campaignName": "the firstname of the recipient"
        }
      }
    },
    "title": "Donate factory contract",
    "version": 1
  },
  "userdoc": {
    "kind": "user",
    "methods": {
      "createDonate(string,string)": {
        "notice": "This function creates Donate by calling constructor of Donate"
      }
    },
    "notice": "A factory contract for the main FundMe contract",
    "version": 1
  },
  "storageLayout": {
    "storage": [
      {
        "astId": 19,
        "contract": "contracts/Donate.sol:DonateFactory",
        "label": "namesArray",
        "offset": 0,
        "slot": "0",
        "type": "t_array(t_string_storage)dyn_storage"
      },
      {
        "astId": 22,
        "contract": "contracts/Donate.sol:DonateFactory",
        "label": "creatorList",
        "offset": 0,
        "slot": "1",
        "type": "t_array(t_address)dyn_storage"
      },
      {
        "astId": 30,
        "contract": "contracts/Donate.sol:DonateFactory",
        "label": "funders",
        "offset": 0,
        "slot": "2",
        "type": "t_array(t_address)dyn_storage"
      },
      {
        "astId": 35,
        "contract": "contracts/Donate.sol:DonateFactory",
        "label": "hashedAddressList",
        "offset": 0,
        "slot": "3",
        "type": "t_array(t_bytes32)dyn_storage"
      },
      {
        "astId": 39,
        "contract": "contracts/Donate.sol:DonateFactory",
        "label": "nameToAddress",
        "offset": 0,
        "slot": "4",
        "type": "t_mapping(t_string_memory_ptr,t_address)"
      },
      {
        "astId": 43,
        "contract": "contracts/Donate.sol:DonateFactory",
        "label": "addressToAmountFunded",
        "offset": 0,
        "slot": "5",
        "type": "t_mapping(t_address,t_uint256)"
      },
      {
        "astId": 47,
        "contract": "contracts/Donate.sol:DonateFactory",
        "label": "creatorToCampaignCreated",
        "offset": 0,
        "slot": "6",
        "type": "t_mapping(t_address,t_address)"
      },
      {
        "astId": 52,
        "contract": "contracts/Donate.sol:DonateFactory",
        "label": "campaignNameToCreatorDetail",
        "offset": 0,
        "slot": "7",
        "type": "t_mapping(t_string_memory_ptr,t_struct(CreatorDetail)73_storage)"
      },
      {
        "astId": 57,
        "contract": "contracts/Donate.sol:DonateFactory",
        "label": "campaignAddressToCreatorDetail",
        "offset": 0,
        "slot": "8",
        "type": "t_mapping(t_address,t_struct(CreatorDetail)73_storage)"
      },
      {
        "astId": 62,
        "contract": "contracts/Donate.sol:DonateFactory",
        "label": "creatorToCreatorDetail",
        "offset": 0,
        "slot": "9",
        "type": "t_mapping(t_address,t_struct(CreatorDetail)73_storage)"
      },
      {
        "astId": 66,
        "contract": "contracts/Donate.sol:DonateFactory",
        "label": "creatorDetail",
        "offset": 0,
        "slot": "10",
        "type": "t_array(t_struct(CreatorDetail)73_storage)dyn_storage"
      }
    ],
    "types": {
      "t_address": {
        "encoding": "inplace",
        "label": "address",
        "numberOfBytes": "20"
      },
      "t_array(t_address)dyn_storage": {
        "base": "t_address",
        "encoding": "dynamic_array",
        "label": "address[]",
        "numberOfBytes": "32"
      },
      "t_array(t_bytes32)dyn_storage": {
        "base": "t_bytes32",
        "encoding": "dynamic_array",
        "label": "bytes32[]",
        "numberOfBytes": "32"
      },
      "t_array(t_string_storage)dyn_storage": {
        "base": "t_string_storage",
        "encoding": "dynamic_array",
        "label": "string[]",
        "numberOfBytes": "32"
      },
      "t_array(t_struct(CreatorDetail)73_storage)dyn_storage": {
        "base": "t_struct(CreatorDetail)73_storage",
        "encoding": "dynamic_array",
        "label": "struct DonateFactory.CreatorDetail[]",
        "numberOfBytes": "32"
      },
      "t_bytes32": {
        "encoding": "inplace",
        "label": "bytes32",
        "numberOfBytes": "32"
      },
      "t_mapping(t_address,t_address)": {
        "encoding": "mapping",
        "key": "t_address",
        "label": "mapping(address => address)",
        "numberOfBytes": "32",
        "value": "t_address"
      },
      "t_mapping(t_address,t_struct(CreatorDetail)73_storage)": {
        "encoding": "mapping",
        "key": "t_address",
        "label": "mapping(address => struct DonateFactory.CreatorDetail)",
        "numberOfBytes": "32",
        "value": "t_struct(CreatorDetail)73_storage"
      },
      "t_mapping(t_address,t_uint256)": {
        "encoding": "mapping",
        "key": "t_address",
        "label": "mapping(address => uint256)",
        "numberOfBytes": "32",
        "value": "t_uint256"
      },
      "t_mapping(t_string_memory_ptr,t_address)": {
        "encoding": "mapping",
        "key": "t_string_memory_ptr",
        "label": "mapping(string => address)",
        "numberOfBytes": "32",
        "value": "t_address"
      },
      "t_mapping(t_string_memory_ptr,t_struct(CreatorDetail)73_storage)": {
        "encoding": "mapping",
        "key": "t_string_memory_ptr",
        "label": "mapping(string => struct DonateFactory.CreatorDetail)",
        "numberOfBytes": "32",
        "value": "t_struct(CreatorDetail)73_storage"
      },
      "t_string_memory_ptr": {
        "encoding": "bytes",
        "label": "string",
        "numberOfBytes": "32"
      },
      "t_string_storage": {
        "encoding": "bytes",
        "label": "string",
        "numberOfBytes": "32"
      },
      "t_struct(CreatorDetail)73_storage": {
        "encoding": "inplace",
        "label": "struct DonateFactory.CreatorDetail",
        "members": [
          {
            "astId": 68,
            "contract": "contracts/Donate.sol:DonateFactory",
            "label": "campaignAddress",
            "offset": 0,
            "slot": "0",
            "type": "t_address"
          },
          {
            "astId": 70,
            "contract": "contracts/Donate.sol:DonateFactory",
            "label": "campaignName",
            "offset": 0,
            "slot": "1",
            "type": "t_string_storage"
          },
          {
            "astId": 72,
            "contract": "contracts/Donate.sol:DonateFactory",
            "label": "creator",
            "offset": 0,
            "slot": "2",
            "type": "t_address"
          }
        ],
        "numberOfBytes": "96"
      },
      "t_uint256": {
        "encoding": "inplace",
        "label": "uint256",
        "numberOfBytes": "32"
      }
    }
  }
}