{
  "address": "0xe7f1725E7734CE288F8367e1Bb143E90bb3F0512",
  "abi": [
    {
      "inputs": [
        {
          "internalType": "string",
          "name": "_campaignName",
          "type": "string"
        },
        {
          "internalType": "string",
          "name": "_description",
          "type": "string"
        },
        {
          "internalType": "address",
          "name": "_i_owner",
          "type": "address"
        }
      ],
      "stateMutability": "nonpayable",
      "type": "constructor"
    },
    {
      "inputs": [],
      "name": "Donate__CallFailed",
      "type": "error"
    },
    {
      "inputs": [],
      "name": "Donate__NotOwner",
      "type": "error"
    },
    {
      "anonymous": false,
      "inputs": [
        {
          "indexed": true,
          "internalType": "address",
          "name": "_from",
          "type": "address"
        },
        {
          "indexed": true,
          "internalType": "address",
          "name": "_contract",
          "type": "address"
        },
        {
          "indexed": false,
          "internalType": "string",
          "name": "_desription",
          "type": "string"
        }
      ],
      "name": "Contract_Created",
      "type": "event"
    },
    {
      "anonymous": false,
      "inputs": [
        {
          "indexed": true,
          "internalType": "address",
          "name": "_from",
          "type": "address"
        },
        {
          "indexed": true,
          "internalType": "address",
          "name": "_contract",
          "type": "address"
        },
        {
          "indexed": false,
          "internalType": "uint256",
          "name": "_value",
          "type": "uint256"
        }
      ],
      "name": "Fund_Withdrawn",
      "type": "event"
    },
    {
      "anonymous": false,
      "inputs": [
        {
          "indexed": true,
          "internalType": "address",
          "name": "_from",
          "type": "address"
        },
        {
          "indexed": true,
          "internalType": "address",
          "name": "_contract",
          "type": "address"
        },
        {
          "indexed": false,
          "internalType": "uint256",
          "name": "_value",
          "type": "uint256"
        }
      ],
      "name": "Funds_Donated",
      "type": "event"
    },
    {
      "stateMutability": "payable",
      "type": "fallback"
    },
    {
      "inputs": [],
      "name": "donate",
      "outputs": [],
      "stateMutability": "payable",
      "type": "function"
    },
    {
      "inputs": [
        {
          "internalType": "address",
          "name": "_address",
          "type": "address"
        }
      ],
      "name": "getBalance",
      "outputs": [
        {
          "internalType": "uint256",
          "name": "",
          "type": "uint256"
        }
      ],
      "stateMutability": "view",
      "type": "function"
    },
    {
      "inputs": [
        {
          "internalType": "uint256",
          "name": "_index",
          "type": "uint256"
        }
      ],
      "name": "getDonators",
      "outputs": [
        {
          "internalType": "address",
          "name": "",
          "type": "address"
        }
      ],
      "stateMutability": "view",
      "type": "function"
    },
    {
      "inputs": [
        {
          "internalType": "address",
          "name": "_donor",
          "type": "address"
        }
      ],
      "name": "getDonorToAmount",
      "outputs": [
        {
          "internalType": "uint256",
          "name": "",
          "type": "uint256"
        }
      ],
      "stateMutability": "view",
      "type": "function"
    },
    {
      "inputs": [
        {
          "internalType": "uint256",
          "name": "_amount",
          "type": "uint256"
        }
      ],
      "name": "withdraw",
      "outputs": [],
      "stateMutability": "nonpayable",
      "type": "function"
    },
    {
      "stateMutability": "payable",
      "type": "receive"
    }
  ],
  "transactionHash": "0x4109ad5659f843f2728a07b4266379a3b4f5e9ab4f9a509d21b26f73734e94a3",
  "args": [
    "Salem",
    "Peace",
    "0xf39Fd6e51aad88F6F4ce6aB8827279cffFb92266"
  ],
  "numDeployments": 1,
  "solcInputHash": "cc8cf709a43f33485d730d0d2b6abaf9",
  "bytecode": "0x60806040523480156200001157600080fd5b5060405162000c9738038062000c97833981810160405281019062000037919062000282565b80600360006101000a81548173ffffffffffffffffffffffffffffffffffffffff021916908373ffffffffffffffffffffffffffffffffffffffff1602179055508260059080519060200190620000909291906200013d565b508160049080519060200190620000a99291906200013d565b503073ffffffffffffffffffffffffffffffffffffffff16600360009054906101000a900473ffffffffffffffffffffffffffffffffffffffff1673ffffffffffffffffffffffffffffffffffffffff167fb0c23c661f7a83f4f85f6009189862c40156b6a2676806c56313762b8ef05d2160046040516200012c9190620003a8565b60405180910390a3505050620005c4565b8280546200014b90620004bb565b90600052602060002090601f0160209004810192826200016f5760008555620001bb565b82601f106200018a57805160ff1916838001178555620001bb565b82800160010185558215620001bb579182015b82811115620001ba5782518255916020019190600101906200019d565b5b509050620001ca9190620001ce565b5090565b5b80821115620001e9576000816000905550600101620001cf565b5090565b600062000204620001fe84620003f5565b620003cc565b9050828152602081018484840111156200022357620002226200058a565b5b6200023084828562000485565b509392505050565b6000815190506200024981620005aa565b92915050565b600082601f83011262000267576200026662000585565b5b815162000279848260208601620001ed565b91505092915050565b6000806000606084860312156200029e576200029d62000594565b5b600084015167ffffffffffffffff811115620002bf57620002be6200058f565b5b620002cd868287016200024f565b935050602084015167ffffffffffffffff811115620002f157620002f06200058f565b5b620002ff868287016200024f565b9250506040620003128682870162000238565b9150509250925092565b600081546200032b81620004bb565b62000337818662000440565b9450600182166000811462000355576001811462000368576200039f565b60ff19831686526020860193506200039f565b62000373856200042b565b60005b83811015620003975781548189015260018201915060208101905062000376565b808801955050505b50505092915050565b60006020820190508181036000830152620003c481846200031c565b905092915050565b6000620003d8620003eb565b9050620003e68282620004f1565b919050565b6000604051905090565b600067ffffffffffffffff82111562000413576200041262000556565b5b6200041e8262000599565b9050602081019050919050565b60008190508160005260206000209050919050565b600082825260208201905092915050565b60006200045e8262000465565b9050919050565b600073ffffffffffffffffffffffffffffffffffffffff82169050919050565b60005b83811015620004a557808201518184015260208101905062000488565b83811115620004b5576000848401525b50505050565b60006002820490506001821680620004d457607f821691505b60208210811415620004eb57620004ea62000527565b5b50919050565b620004fc8262000599565b810181811067ffffffffffffffff821117156200051e576200051d62000556565b5b80604052505050565b7f4e487b7100000000000000000000000000000000000000000000000000000000600052602260045260246000fd5b7f4e487b7100000000000000000000000000000000000000000000000000000000600052604160045260246000fd5b600080fd5b600080fd5b600080fd5b600080fd5b6000601f19601f8301169050919050565b620005b58162000451565b8114620005c157600080fd5b50565b6106c380620005d46000396000f3fe60806040526004361061004e5760003560e01c80630fa91fa9146100675780632e1a7d4d146100a45780633e05f0f5146100cd578063ed88c68e1461010a578063f8b2cb4f146101145761005d565b3661005d5761005b610151565b005b610065610151565b005b34801561007357600080fd5b5061008e60048036038101906100899190610528565b61025f565b60405161009b91906105ab565b60405180910390f35b3480156100b057600080fd5b506100cb60048036038101906100c69190610528565b6102a7565b005b3480156100d957600080fd5b506100f460048036038101906100ef91906104fb565b610462565b60405161010191906105c6565b60405180910390f35b610112610151565b005b34801561012057600080fd5b5061013b600480360381019061013691906104fb565b6104ab565b60405161014891906105c6565b60405180910390f35b6002339080600181540180825580915050600190039060005260206000200160009091909190916101000a81548173ffffffffffffffffffffffffffffffffffffffff021916908373ffffffffffffffffffffffffffffffffffffffff16021790555034600160003373ffffffffffffffffffffffffffffffffffffffff1673ffffffffffffffffffffffffffffffffffffffff168152602001908152602001600020819055503073ffffffffffffffffffffffffffffffffffffffff163373ffffffffffffffffffffffffffffffffffffffff167f702ce8e2a7e3a8bc7ba50d9187386c652637c1e0a97f4c8ad4c2481e1ae0861a3460405161025591906105c6565b60405180910390a3565b60006002828154811061027557610274610628565b5b9060005260206000200160009054906101000a900473ffffffffffffffffffffffffffffffffffffffff169050919050565b600360009054906101000a900473ffffffffffffffffffffffffffffffffffffffff1673ffffffffffffffffffffffffffffffffffffffff163373ffffffffffffffffffffffffffffffffffffffff161461032e576040517fe0e48fa400000000000000000000000000000000000000000000000000000000815260040160405180910390fd5b60008190503073ffffffffffffffffffffffffffffffffffffffff16600360009054906101000a900473ffffffffffffffffffffffffffffffffffffffff1673ffffffffffffffffffffffffffffffffffffffff167f60a3bf8490aa32c80db056237a7c8321c0a03596ab5a9dffe3f32151b7254fb7836040516103b291906105c6565b60405180910390a360003373ffffffffffffffffffffffffffffffffffffffff16826040516103e090610596565b60006040518083038185875af1925050503d806000811461041d576040519150601f19603f3d011682016040523d82523d6000602084013e610422565b606091505b505090508061045d576040517faaf2e54b00000000000000000000000000000000000000000000000000000000815260040160405180910390fd5b505050565b6000600160008373ffffffffffffffffffffffffffffffffffffffff1673ffffffffffffffffffffffffffffffffffffffff168152602001908152602001600020549050919050565b6000808273ffffffffffffffffffffffffffffffffffffffff1631905080915050919050565b6000813590506104e08161065f565b92915050565b6000813590506104f581610676565b92915050565b60006020828403121561051157610510610657565b5b600061051f848285016104d1565b91505092915050565b60006020828403121561053e5761053d610657565b5b600061054c848285016104e6565b91505092915050565b61055e816105ec565b82525050565b60006105716000836105e1565b915061057c8261065c565b600082019050919050565b6105908161061e565b82525050565b60006105a182610564565b9150819050919050565b60006020820190506105c06000830184610555565b92915050565b60006020820190506105db6000830184610587565b92915050565b600081905092915050565b60006105f7826105fe565b9050919050565b600073ffffffffffffffffffffffffffffffffffffffff82169050919050565b6000819050919050565b7f4e487b7100000000000000000000000000000000000000000000000000000000600052603260045260246000fd5b600080fd5b50565b610668816105ec565b811461067357600080fd5b50565b61067f8161061e565b811461068a57600080fd5b5056fea264697066735822122079ee3edd90c387462b15042e5f3201380d94e9c1c6d004605177f0f07edc587064736f6c63430008070033",
  "devdoc": {
    "author": "Olaoye Salem",
    "kind": "dev",
    "methods": {
      "withdraw(uint256)": {
        "details": "Only reciepient can withdraw funds from this contractall funds can be remooved anytime"
      }
    },
    "title": "Fund Me",
    "version": 1
  },
  "userdoc": {
    "events": {
      "Contract_Created(address,address,string)": {
        "notice": "only fundraiser/recipient can perform action"
      }
    },
    "kind": "user",
    "methods": {
      "withdraw(uint256)": {
        "notice": "allows for withdrawing funds from contract"
      }
    },
    "notice": "A fundraising contract on the blockchain/ similar to GoFundMe",
    "version": 1
  },
  "storageLayout": {
    "storage": [
      {
        "astId": 550,
        "contract": "contracts/Donate.sol:Donate",
        "label": "hashedAddressList",
        "offset": 0,
        "slot": "0",
        "type": "t_array(t_bytes32)dyn_storage"
      },
      {
        "astId": 554,
        "contract": "contracts/Donate.sol:Donate",
        "label": "donorsAmount",
        "offset": 0,
        "slot": "1",
        "type": "t_mapping(t_address,t_uint256)"
      },
      {
        "astId": 557,
        "contract": "contracts/Donate.sol:Donate",
        "label": "donators",
        "offset": 0,
        "slot": "2",
        "type": "t_array(t_address)dyn_storage"
      },
      {
        "astId": 559,
        "contract": "contracts/Donate.sol:Donate",
        "label": "i_owner",
        "offset": 0,
        "slot": "3",
        "type": "t_address"
      },
      {
        "astId": 599,
        "contract": "contracts/Donate.sol:Donate",
        "label": "description",
        "offset": 0,
        "slot": "4",
        "type": "t_string_storage"
      },
      {
        "astId": 601,
        "contract": "contracts/Donate.sol:Donate",
        "label": "campaignName",
        "offset": 0,
        "slot": "5",
        "type": "t_string_storage"
      }
    ],
    "types": {
      "t_address": {
        "encoding": "inplace",
        "label": "address",
        "numberOfBytes": "20"
      },
      "t_array(t_address)dyn_storage": {
        "base": "t_address",
        "encoding": "dynamic_array",
        "label": "address[]",
        "numberOfBytes": "32"
      },
      "t_array(t_bytes32)dyn_storage": {
        "base": "t_bytes32",
        "encoding": "dynamic_array",
        "label": "bytes32[]",
        "numberOfBytes": "32"
      },
      "t_bytes32": {
        "encoding": "inplace",
        "label": "bytes32",
        "numberOfBytes": "32"
      },
      "t_mapping(t_address,t_uint256)": {
        "encoding": "mapping",
        "key": "t_address",
        "label": "mapping(address => uint256)",
        "numberOfBytes": "32",
        "value": "t_uint256"
      },
      "t_string_storage": {
        "encoding": "bytes",
        "label": "string",
        "numberOfBytes": "32"
      },
      "t_uint256": {
        "encoding": "inplace",
        "label": "uint256",
        "numberOfBytes": "32"
      }
    }
  }
}