{
  "address": "0x5FbDB2315678afecb367f032d93F642f64180aa3",
  "abi": [
    {
      "inputs": [],
      "stateMutability": "nonpayable",
      "type": "constructor"
    },
    {
      "inputs": [],
      "name": "DonateFactory__CallFailed",
      "type": "error"
    },
    {
      "inputs": [],
      "name": "DonateFactory__NameHasBeenTaken",
      "type": "error"
    },
    {
      "inputs": [],
      "name": "DonateFactory__NotEnoughEth",
      "type": "error"
    },
    {
      "inputs": [],
      "name": "DonateFactory__NotOwner",
      "type": "error"
    },
    {
      "anonymous": false,
      "inputs": [
        {
          "indexed": true,
          "internalType": "address",
          "name": "creator",
          "type": "address"
        },
        {
          "indexed": true,
          "internalType": "address",
          "name": "campaign",
          "type": "address"
        }
      ],
      "name": "campaignCreated",
      "type": "event"
    },
    {
      "anonymous": false,
      "inputs": [
        {
          "indexed": true,
          "internalType": "address",
          "name": "_to",
          "type": "address"
        },
        {
          "indexed": true,
          "internalType": "uint256",
          "name": "_amount",
          "type": "uint256"
        }
      ],
      "name": "withdrawn",
      "type": "event"
    },
    {
      "stateMutability": "payable",
      "type": "fallback"
    },
    {
      "inputs": [
        {
          "internalType": "address",
          "name": "_address",
          "type": "address"
        }
      ],
      "name": "AddressToCreatorDetail",
      "outputs": [
        {
          "components": [
            {
              "internalType": "address",
              "name": "campaignAddress",
              "type": "address"
            },
            {
              "internalType": "string",
              "name": "campaignName",
              "type": "string"
            },
            {
              "internalType": "address",
              "name": "creator",
              "type": "address"
            }
          ],
          "internalType": "struct DonateFactory.CreatorDetail",
          "name": "",
          "type": "tuple"
        }
      ],
      "stateMutability": "view",
      "type": "function"
    },
    {
      "inputs": [],
      "name": "balance",
      "outputs": [
        {
          "internalType": "uint256",
          "name": "",
          "type": "uint256"
        }
      ],
      "stateMutability": "view",
      "type": "function"
    },
    {
      "inputs": [
        {
          "internalType": "string",
          "name": "campaignName",
          "type": "string"
        },
        {
          "internalType": "string",
          "name": "_description",
          "type": "string"
        }
      ],
      "name": "createDonate",
      "outputs": [],
      "stateMutability": "payable",
      "type": "function"
    },
    {
      "inputs": [],
      "name": "getAddressLength",
      "outputs": [
        {
          "internalType": "uint256",
          "name": "",
          "type": "uint256"
        }
      ],
      "stateMutability": "view",
      "type": "function"
    },
    {
      "inputs": [
        {
          "internalType": "address",
          "name": "_address",
          "type": "address"
        }
      ],
      "name": "getAddressToAmountFunded",
      "outputs": [
        {
          "internalType": "uint256",
          "name": "",
          "type": "uint256"
        }
      ],
      "stateMutability": "view",
      "type": "function"
    },
    {
      "inputs": [
        {
          "internalType": "uint256",
          "name": "_index",
          "type": "uint256"
        }
      ],
      "name": "getCampaignAddress",
      "outputs": [
        {
          "internalType": "address",
          "name": "",
          "type": "address"
        }
      ],
      "stateMutability": "view",
      "type": "function"
    },
    {
      "inputs": [
        {
          "internalType": "uint256",
          "name": "_index",
          "type": "uint256"
        }
      ],
      "name": "getCreatorDetails",
      "outputs": [
        {
          "components": [
            {
              "internalType": "address",
              "name": "campaignAddress",
              "type": "address"
            },
            {
              "internalType": "string",
              "name": "campaignName",
              "type": "string"
            },
            {
              "internalType": "address",
              "name": "creator",
              "type": "address"
            }
          ],
          "internalType": "struct DonateFactory.CreatorDetail",
          "name": "",
          "type": "tuple"
        }
      ],
      "stateMutability": "view",
      "type": "function"
    },
    {
      "inputs": [
        {
          "internalType": "uint256",
          "name": "_index",
          "type": "uint256"
        }
      ],
      "name": "getCreatorList",
      "outputs": [
        {
          "internalType": "address",
          "name": "",
          "type": "address"
        }
      ],
      "stateMutability": "view",
      "type": "function"
    },
    {
      "inputs": [
        {
          "internalType": "address",
          "name": "_address",
          "type": "address"
        }
      ],
      "name": "getCreatorToCampaignCreated",
      "outputs": [
        {
          "internalType": "address",
          "name": "",
          "type": "address"
        }
      ],
      "stateMutability": "view",
      "type": "function"
    },
    {
      "inputs": [
        {
          "internalType": "address",
          "name": "_creator",
          "type": "address"
        }
      ],
      "name": "getCreatorToCreatorDetail",
      "outputs": [
        {
          "components": [
            {
              "internalType": "address",
              "name": "campaignAddress",
              "type": "address"
            },
            {
              "internalType": "string",
              "name": "campaignName",
              "type": "string"
            },
            {
              "internalType": "address",
              "name": "creator",
              "type": "address"
            }
          ],
          "internalType": "struct DonateFactory.CreatorDetail",
          "name": "",
          "type": "tuple"
        }
      ],
      "stateMutability": "view",
      "type": "function"
    },
    {
      "inputs": [],
      "name": "getEntranceFee",
      "outputs": [
        {
          "internalType": "uint256",
          "name": "",
          "type": "uint256"
        }
      ],
      "stateMutability": "pure",
      "type": "function"
    },
    {
      "inputs": [
        {
          "internalType": "uint256",
          "name": "_index",
          "type": "uint256"
        }
      ],
      "name": "getFundersList",
      "outputs": [
        {
          "internalType": "address",
          "name": "",
          "type": "address"
        }
      ],
      "stateMutability": "view",
      "type": "function"
    },
    {
      "inputs": [
        {
          "internalType": "uint256",
          "name": "_index",
          "type": "uint256"
        }
      ],
      "name": "getHashedAddressList",
      "outputs": [
        {
          "internalType": "bytes32",
          "name": "",
          "type": "bytes32"
        }
      ],
      "stateMutability": "view",
      "type": "function"
    },
    {
      "inputs": [],
      "name": "getHashedAddressListLength",
      "outputs": [
        {
          "internalType": "uint256",
          "name": "",
          "type": "uint256"
        }
      ],
      "stateMutability": "view",
      "type": "function"
    },
    {
      "inputs": [
        {
          "internalType": "string",
          "name": "_name",
          "type": "string"
        }
      ],
      "name": "getHashedName",
      "outputs": [
        {
          "internalType": "bytes32",
          "name": "",
          "type": "bytes32"
        }
      ],
      "stateMutability": "view",
      "type": "function"
    },
    {
      "inputs": [
        {
          "internalType": "uint256",
          "name": "_index",
          "type": "uint256"
        }
      ],
      "name": "getListOfCampaignCreators",
      "outputs": [
        {
          "internalType": "address",
          "name": "",
          "type": "address"
        }
      ],
      "stateMutability": "view",
      "type": "function"
    },
    {
      "inputs": [
        {
          "internalType": "string",
          "name": "campaignName",
          "type": "string"
        }
      ],
      "name": "getNameToAddress",
      "outputs": [
        {
          "internalType": "address",
          "name": "",
          "type": "address"
        }
      ],
      "stateMutability": "view",
      "type": "function"
    },
    {
      "inputs": [
        {
          "internalType": "uint256",
          "name": "_index",
          "type": "uint256"
        }
      ],
      "name": "getNamesArray",
      "outputs": [
        {
          "internalType": "string",
          "name": "",
          "type": "string"
        }
      ],
      "stateMutability": "view",
      "type": "function"
    },
    {
      "inputs": [],
      "name": "getSender",
      "outputs": [
        {
          "internalType": "address",
          "name": "",
          "type": "address"
        }
      ],
      "stateMutability": "view",
      "type": "function"
    },
    {
      "inputs": [
        {
          "internalType": "string",
          "name": "_name",
          "type": "string"
        }
      ],
      "name": "nameToCreatorDetail",
      "outputs": [
        {
          "components": [
            {
              "internalType": "address",
              "name": "campaignAddress",
              "type": "address"
            },
            {
              "internalType": "string",
              "name": "campaignName",
              "type": "string"
            },
            {
              "internalType": "address",
              "name": "creator",
              "type": "address"
            }
          ],
          "internalType": "struct DonateFactory.CreatorDetail",
          "name": "",
          "type": "tuple"
        }
      ],
      "stateMutability": "view",
      "type": "function"
    },
    {
      "inputs": [
        {
          "internalType": "address",
          "name": "_creator",
          "type": "address"
        }
      ],
      "name": "searchByCreator",
      "outputs": [
        {
          "components": [
            {
              "internalType": "address",
              "name": "campaignAddress",
              "type": "address"
            },
            {
              "internalType": "string",
              "name": "campaignName",
              "type": "string"
            },
            {
              "internalType": "address",
              "name": "creator",
              "type": "address"
            }
          ],
          "internalType": "struct DonateFactory.CreatorDetail",
          "name": "",
          "type": "tuple"
        }
      ],
      "stateMutability": "view",
      "type": "function"
    },
    {
      "inputs": [
        {
          "internalType": "string",
          "name": "_campaignName",
          "type": "string"
        }
      ],
      "name": "searchByName",
      "outputs": [
        {
          "components": [
            {
              "internalType": "address",
              "name": "campaignAddress",
              "type": "address"
            },
            {
              "internalType": "string",
              "name": "campaignName",
              "type": "string"
            },
            {
              "internalType": "address",
              "name": "creator",
              "type": "address"
            }
          ],
          "internalType": "struct DonateFactory.CreatorDetail",
          "name": "",
          "type": "tuple"
        }
      ],
      "stateMutability": "view",
      "type": "function"
    },
    {
      "inputs": [
        {
          "internalType": "address",
          "name": "_campaignAddress",
          "type": "address"
        }
      ],
      "name": "serachByCampaignAddress",
      "outputs": [
        {
          "components": [
            {
              "internalType": "address",
              "name": "campaignAddress",
              "type": "address"
            },
            {
              "internalType": "string",
              "name": "campaignName",
              "type": "string"
            },
            {
              "internalType": "address",
              "name": "creator",
              "type": "address"
            }
          ],
          "internalType": "struct DonateFactory.CreatorDetail",
          "name": "",
          "type": "tuple"
        }
      ],
      "stateMutability": "view",
      "type": "function"
    },
    {
      "inputs": [
        {
          "internalType": "uint256",
          "name": "_amount",
          "type": "uint256"
        }
      ],
      "name": "withdraw",
      "outputs": [],
      "stateMutability": "nonpayable",
      "type": "function"
    },
    {
      "stateMutability": "payable",
      "type": "receive"
    }
  ],
  "transactionHash": "0x1a186d0ef64abd308e1cdcab81db61432bfee37fe0f067cf1d0062f59683154e",
  "args": [],
  "numDeployments": 1,
  "solcInputHash": "4e8e398986319dcdac7449c01a3a9b4e",
  "bytecode": "0x60c0604052662386f26fc1000060809081525034801561001e57600080fd5b503373ffffffffffffffffffffffffffffffffffffffff1660a08173ffffffffffffffffffffffffffffffffffffffff1660601b8152505060805160a05160601c6136bd6100856000396000610ad101526000818161078801526117d201526136bd6000f3fe6080604052600436106200016f5760003560e01c8063713c621a11620000c7578063c9603ccb1162000079578063c9603ccb14620005db578063ddbbc35c146200061f578063e1231ec51462000663578063e4e05ce314620006a7578063e4f9f10314620006eb578063eeb7d48c146200071b5762000177565b8063713c621a1462000457578063727658e8146200049b57806380cdadbb14620004df57806389b99dcc1462000523578063b69ef8a81462000567578063c380236614620005975762000177565b806347c3b2da116200012157806347c3b2da14620002d357806348634cd4146200031757806354a1499a146200035b5780635e01eb5a146200039f57806362ffaeb314620003cf5780636387b84914620004135762000177565b80630343fb25146200017957806309bc33a714620001bd578063277d1bf714620001ed5780632bc902f414620002315780632e1a7d4d14620002755780633b3672bd14620002a35762000177565b366200017757005b005b3480156200018657600080fd5b50620001a560048036038101906200019f919062002221565b6200073b565b604051620001b491906200266b565b60405180910390f35b348015620001ca57600080fd5b50620001d562000784565b604051620001e491906200266b565b60405180910390f35b348015620001fa57600080fd5b5062000219600480360381019062000213919062002221565b620007ac565b60405162000228919062002647565b60405180910390f35b3480156200023e57600080fd5b506200025d6004803603810190620002579190620022a8565b6200094d565b6040516200026c919062002647565b60405180910390f35b3480156200028257600080fd5b50620002a160048036038101906200029b91906200237e565b62000acf565b005b348015620002b057600080fd5b50620002bb62000c01565b604051620002ca91906200266b565b60405180910390f35b348015620002e057600080fd5b50620002ff6004803603810190620002f991906200237e565b62000c0e565b6040516200030e91906200259e565b60405180910390f35b3480156200032457600080fd5b506200034360048036038101906200033d91906200237e565b62000c59565b6040516200035291906200259e565b60405180910390f35b3480156200036857600080fd5b5062000387600480360381019062000381919062002221565b62000ca4565b60405162000396919062002647565b60405180910390f35b348015620003ac57600080fd5b50620003b762000e45565b604051620003c691906200259e565b60405180910390f35b348015620003dc57600080fd5b50620003fb6004803603810190620003f591906200237e565b62000e4d565b6040516200040a9190620025d8565b60405180910390f35b3480156200042057600080fd5b506200043f60048036038101906200043991906200237e565b62000f08565b6040516200044e9190620025bb565b60405180910390f35b3480156200046457600080fd5b506200048360048036038101906200047d919062002221565b62000f33565b60405162000492919062002647565b60405180910390f35b348015620004a857600080fd5b50620004c76004803603810190620004c1919062002221565b620010d4565b604051620004d691906200259e565b60405180910390f35b348015620004ec57600080fd5b506200050b6004803603810190620005059190620022a8565b6200113d565b6040516200051a9190620025bb565b60405180910390f35b3480156200053057600080fd5b506200054f60048036038101906200054991906200237e565b62001174565b6040516200055e91906200259e565b60405180910390f35b3480156200057457600080fd5b506200057f620011bf565b6040516200058e91906200266b565b60405180910390f35b348015620005a457600080fd5b50620005c36004803603810190620005bd91906200237e565b620011cc565b604051620005d2919062002647565b60405180910390f35b348015620005e857600080fd5b5062000607600480360381019062000601919062002253565b62001353565b6040516200061691906200259e565b60405180910390f35b3480156200062c57600080fd5b506200064b6004803603810190620006459190620022a8565b620013a0565b6040516200065a919062002647565b60405180910390f35b3480156200067057600080fd5b506200068f60048036038101906200068991906200237e565b62001522565b6040516200069e91906200259e565b60405180910390f35b348015620006b457600080fd5b50620006d36004803603810190620006cd919062002221565b6200156d565b604051620006e2919062002647565b60405180910390f35b348015620006f857600080fd5b50620007036200170e565b6040516200071291906200266b565b60405180910390f35b620007396004803603810190620007339190620022f9565b6200171b565b005b6000600660008373ffffffffffffffffffffffffffffffffffffffff1673ffffffffffffffffffffffffffffffffffffffff168152602001908152602001600020549050919050565b60007f0000000000000000000000000000000000000000000000000000000000000000905090565b620007b66200200b565b600a60008373ffffffffffffffffffffffffffffffffffffffff1673ffffffffffffffffffffffffffffffffffffffff1681526020019081526020016000206040518060600160405290816000820160009054906101000a900473ffffffffffffffffffffffffffffffffffffffff1673ffffffffffffffffffffffffffffffffffffffff1673ffffffffffffffffffffffffffffffffffffffff168152602001600182018054620008689062002814565b80601f0160208091040260200160405190810160405280929190818152602001828054620008969062002814565b8015620008e75780601f10620008bb57610100808354040283529160200191620008e7565b820191906000526020600020905b815481529060010190602001808311620008c957829003601f168201915b505050505081526020016002820160009054906101000a900473ffffffffffffffffffffffffffffffffffffffff1673ffffffffffffffffffffffffffffffffffffffff1673ffffffffffffffffffffffffffffffffffffffff16815250509050919050565b620009576200200b565b6008826040516200096991906200256e565b90815260200160405180910390206040518060600160405290816000820160009054906101000a900473ffffffffffffffffffffffffffffffffffffffff1673ffffffffffffffffffffffffffffffffffffffff1673ffffffffffffffffffffffffffffffffffffffff168152602001600182018054620009ea9062002814565b80601f016020809104026020016040519081016040528092919081815260200182805462000a189062002814565b801562000a695780601f1062000a3d5761010080835404028352916020019162000a69565b820191906000526020600020905b81548152906001019060200180831162000a4b57829003601f168201915b505050505081526020016002820160009054906101000a900473ffffffffffffffffffffffffffffffffffffffff1673ffffffffffffffffffffffffffffffffffffffff1673ffffffffffffffffffffffffffffffffffffffff16815250509050919050565b7f000000000000000000000000000000000000000000000000000000000000000073ffffffffffffffffffffffffffffffffffffffff163373ffffffffffffffffffffffffffffffffffffffff161462000b55576040517f30e3fbf200000000000000000000000000000000000000000000000000000000815260040160405180910390fd5b60003373ffffffffffffffffffffffffffffffffffffffff168260405162000b7d9062002587565b60006040518083038185875af1925050503d806000811462000bbc576040519150601f19603f3d011682016040523d82523d6000602084013e62000bc1565b606091505b505090508062000bfd576040517f609cfbd000000000000000000000000000000000000000000000000000000000815260040160405180910390fd5b5050565b6000600180549050905090565b60006003828154811062000c275762000c266200292c565b5b9060005260206000200160009054906101000a900473ffffffffffffffffffffffffffffffffffffffff169050919050565b60006001828154811062000c725762000c716200292c565b5b9060005260206000200160009054906101000a900473ffffffffffffffffffffffffffffffffffffffff169050919050565b62000cae6200200b565b600960008373ffffffffffffffffffffffffffffffffffffffff1673ffffffffffffffffffffffffffffffffffffffff1681526020019081526020016000206040518060600160405290816000820160009054906101000a900473ffffffffffffffffffffffffffffffffffffffff1673ffffffffffffffffffffffffffffffffffffffff1673ffffffffffffffffffffffffffffffffffffffff16815260200160018201805462000d609062002814565b80601f016020809104026020016040519081016040528092919081815260200182805462000d8e9062002814565b801562000ddf5780601f1062000db35761010080835404028352916020019162000ddf565b820191906000526020600020905b81548152906001019060200180831162000dc157829003601f168201915b505050505081526020016002820160009054906101000a900473ffffffffffffffffffffffffffffffffffffffff1673ffffffffffffffffffffffffffffffffffffffff1673ffffffffffffffffffffffffffffffffffffffff16815250509050919050565b600033905090565b60606000828154811062000e665762000e656200292c565b5b90600052602060002001805462000e7d9062002814565b80601f016020809104026020016040519081016040528092919081815260200182805462000eab9062002814565b801562000efc5780601f1062000ed05761010080835404028352916020019162000efc565b820191906000526020600020905b81548152906001019060200180831162000ede57829003601f168201915b50505050509050919050565b60006004828154811062000f215762000f206200292c565b5b90600052602060002001549050919050565b62000f3d6200200b565b600a60008373ffffffffffffffffffffffffffffffffffffffff1673ffffffffffffffffffffffffffffffffffffffff1681526020019081526020016000206040518060600160405290816000820160009054906101000a900473ffffffffffffffffffffffffffffffffffffffff1673ffffffffffffffffffffffffffffffffffffffff1673ffffffffffffffffffffffffffffffffffffffff16815260200160018201805462000fef9062002814565b80601f01602080910402602001604051908101604052809291908181526020018280546200101d9062002814565b80156200106e5780601f1062001042576101008083540402835291602001916200106e565b820191906000526020600020905b8154815290600101906020018083116200105057829003601f168201915b505050505081526020016002820160009054906101000a900473ffffffffffffffffffffffffffffffffffffffff1673ffffffffffffffffffffffffffffffffffffffff1673ffffffffffffffffffffffffffffffffffffffff16815250509050919050565b6000600760008373ffffffffffffffffffffffffffffffffffffffff1673ffffffffffffffffffffffffffffffffffffffff16815260200190815260200160002060009054906101000a900473ffffffffffffffffffffffffffffffffffffffff169050919050565b60008082604051602001620011539190620025d8565b60405160208183030381529060405280519060200120905080915050919050565b6000600282815481106200118d576200118c6200292c565b5b9060005260206000200160009054906101000a900473ffffffffffffffffffffffffffffffffffffffff169050919050565b6000804790508091505090565b620011d66200200b565b600b8281548110620011ed57620011ec6200292c565b5b90600052602060002090600302016040518060600160405290816000820160009054906101000a900473ffffffffffffffffffffffffffffffffffffffff1673ffffffffffffffffffffffffffffffffffffffff1673ffffffffffffffffffffffffffffffffffffffff1681526020016001820180546200126e9062002814565b80601f01602080910402602001604051908101604052809291908181526020018280546200129c9062002814565b8015620012ed5780601f10620012c157610100808354040283529160200191620012ed565b820191906000526020600020905b815481529060010190602001808311620012cf57829003601f168201915b505050505081526020016002820160009054906101000a900473ffffffffffffffffffffffffffffffffffffffff1673ffffffffffffffffffffffffffffffffffffffff1673ffffffffffffffffffffffffffffffffffffffff16815250509050919050565b6000600583836040516200136992919062002553565b908152602001604051809103902060009054906101000a900473ffffffffffffffffffffffffffffffffffffffff16905092915050565b620013aa6200200b565b600882604051620013bc91906200256e565b90815260200160405180910390206040518060600160405290816000820160009054906101000a900473ffffffffffffffffffffffffffffffffffffffff1673ffffffffffffffffffffffffffffffffffffffff1673ffffffffffffffffffffffffffffffffffffffff1681526020016001820180546200143d9062002814565b80601f01602080910402602001604051908101604052809291908181526020018280546200146b9062002814565b8015620014bc5780601f106200149057610100808354040283529160200191620014bc565b820191906000526020600020905b8154815290600101906020018083116200149e57829003601f168201915b505050505081526020016002820160009054906101000a900473ffffffffffffffffffffffffffffffffffffffff1673ffffffffffffffffffffffffffffffffffffffff1673ffffffffffffffffffffffffffffffffffffffff16815250509050919050565b6000600182815481106200153b576200153a6200292c565b5b9060005260206000200160009054906101000a900473ffffffffffffffffffffffffffffffffffffffff169050919050565b620015776200200b565b600960008373ffffffffffffffffffffffffffffffffffffffff1673ffffffffffffffffffffffffffffffffffffffff1681526020019081526020016000206040518060600160405290816000820160009054906101000a900473ffffffffffffffffffffffffffffffffffffffff1673ffffffffffffffffffffffffffffffffffffffff1673ffffffffffffffffffffffffffffffffffffffff168152602001600182018054620016299062002814565b80601f0160208091040260200160405190810160405280929190818152602001828054620016579062002814565b8015620016a85780601f106200167c57610100808354040283529160200191620016a8565b820191906000526020600020905b8154815290600101906020018083116200168a57829003601f168201915b505050505081526020016002820160009054906101000a900473ffffffffffffffffffffffffffffffffffffffff1673ffffffffffffffffffffffffffffffffffffffff1673ffffffffffffffffffffffffffffffffffffffff16815250509050919050565b6000600480549050905090565b81600081604051602001620017319190620025d8565b6040516020818303038152906040528051906020012090506000600480549050905060005b81811015620017cf57600481815481106200177657620017756200292c565b5b9060005260206000200154831415620017bb576040517f9f76b97200000000000000000000000000000000000000000000000000000000815260040160405180910390fd5b80620017c79062002880565b905062001756565b507f00000000000000000000000000000000000000000000000000000000000000003410156200182b576040517ffe4b298900000000000000000000000000000000000000000000000000000000815260040160405180910390fd5b6000859080600181540180825580915050600190039060005260206000200160009091909190915090805190602001906200186892919062002058565b506002339080600181540180825580915050600190039060005260206000200160009091909190916101000a81548173ffffffffffffffffffffffffffffffffffffffff021916908373ffffffffffffffffffffffffffffffffffffffff16021790555034600660003373ffffffffffffffffffffffffffffffffffffffff1673ffffffffffffffffffffffffffffffffffffffff16815260200190815260200160002060008282546200191d91906200272a565b92505081905550600085604051602001620019399190620025d8565b604051602081830303815290604052805190602001209050600481908060018154018082558091505060019003906000526020600020016000909190919091505560008686336040516200198d90620020e9565b6200199b93929190620025fc565b604051809103906000f080158015620019b8573d6000803e3d6000fd5b5090506003339080600181540180825580915050600190039060005260206000200160009091909190916101000a81548173ffffffffffffffffffffffffffffffffffffffff021916908373ffffffffffffffffffffffffffffffffffffffff1602179055506001819080600181540180825580915050600190039060005260206000200160009091909190916101000a81548173ffffffffffffffffffffffffffffffffffffffff021916908373ffffffffffffffffffffffffffffffffffffffff160217905550600b60405180606001604052808373ffffffffffffffffffffffffffffffffffffffff1681526020018981526020013373ffffffffffffffffffffffffffffffffffffffff16815250908060018154018082558091505060019003906000526020600020906003020160009091909190915060008201518160000160006101000a81548173ffffffffffffffffffffffffffffffffffffffff021916908373ffffffffffffffffffffffffffffffffffffffff160217905550602082015181600101908051906020019062001b5892919062002058565b5060408201518160020160006101000a81548173ffffffffffffffffffffffffffffffffffffffff021916908373ffffffffffffffffffffffffffffffffffffffff16021790555050508060058860405162001bb591906200256e565b908152602001604051809103902060006101000a81548173ffffffffffffffffffffffffffffffffffffffff021916908373ffffffffffffffffffffffffffffffffffffffff16021790555080600760003373ffffffffffffffffffffffffffffffffffffffff1673ffffffffffffffffffffffffffffffffffffffff16815260200190815260200160002060006101000a81548173ffffffffffffffffffffffffffffffffffffffff021916908373ffffffffffffffffffffffffffffffffffffffff16021790555060405180606001604052808273ffffffffffffffffffffffffffffffffffffffff1681526020018881526020013373ffffffffffffffffffffffffffffffffffffffff1681525060088860405162001cd891906200256e565b908152602001604051809103902060008201518160000160006101000a81548173ffffffffffffffffffffffffffffffffffffffff021916908373ffffffffffffffffffffffffffffffffffffffff160217905550602082015181600101908051906020019062001d4b92919062002058565b5060408201518160020160006101000a81548173ffffffffffffffffffffffffffffffffffffffff021916908373ffffffffffffffffffffffffffffffffffffffff16021790555090505060405180606001604052808273ffffffffffffffffffffffffffffffffffffffff1681526020018881526020013373ffffffffffffffffffffffffffffffffffffffff16815250600960008373ffffffffffffffffffffffffffffffffffffffff1673ffffffffffffffffffffffffffffffffffffffff16815260200190815260200160002060008201518160000160006101000a81548173ffffffffffffffffffffffffffffffffffffffff021916908373ffffffffffffffffffffffffffffffffffffffff160217905550602082015181600101908051906020019062001e8192919062002058565b5060408201518160020160006101000a81548173ffffffffffffffffffffffffffffffffffffffff021916908373ffffffffffffffffffffffffffffffffffffffff16021790555090505060405180606001604052808273ffffffffffffffffffffffffffffffffffffffff1681526020018881526020013373ffffffffffffffffffffffffffffffffffffffff16815250600a60003373ffffffffffffffffffffffffffffffffffffffff1673ffffffffffffffffffffffffffffffffffffffff16815260200190815260200160002060008201518160000160006101000a81548173ffffffffffffffffffffffffffffffffffffffff021916908373ffffffffffffffffffffffffffffffffffffffff160217905550602082015181600101908051906020019062001fb792919062002058565b5060408201518160020160006101000a81548173ffffffffffffffffffffffffffffffffffffffff021916908373ffffffffffffffffffffffffffffffffffffffff16021790555090505050505050505050565b6040518060600160405280600073ffffffffffffffffffffffffffffffffffffffff16815260200160608152602001600073ffffffffffffffffffffffffffffffffffffffff1681525090565b828054620020669062002814565b90600052602060002090601f0160209004810192826200208a5760008555620020d6565b82601f10620020a557805160ff1916838001178555620020d6565b82800160010185558215620020d6579182015b82811115620020d5578251825591602001919060010190620020b8565b5b509050620020e59190620020f7565b5090565b610c9780620029f183390190565b5b8082111562002112576000816000905550600101620020f8565b5090565b60006200212d6200212784620026b1565b62002688565b9050828152602081018484840111156200214c576200214b62002999565b5b62002159848285620027cf565b509392505050565b6000813590506200217281620029bc565b92915050565b60008083601f8401126200219157620021906200298f565b5b8235905067ffffffffffffffff811115620021b157620021b06200298a565b5b602083019150836001820283011115620021d057620021cf62002994565b5b9250929050565b600082601f830112620021ef57620021ee6200298f565b5b81356200220184826020860162002116565b91505092915050565b6000813590506200221b81620029d6565b92915050565b6000602082840312156200223a5762002239620029a3565b5b60006200224a8482850162002161565b91505092915050565b600080602083850312156200226d576200226c620029a3565b5b600083013567ffffffffffffffff8111156200228e576200228d6200299e565b5b6200229c8582860162002178565b92509250509250929050565b600060208284031215620022c157620022c0620029a3565b5b600082013567ffffffffffffffff811115620022e257620022e16200299e565b5b620022f084828501620021d7565b91505092915050565b60008060408385031215620023135762002312620029a3565b5b600083013567ffffffffffffffff8111156200233457620023336200299e565b5b6200234285828601620021d7565b925050602083013567ffffffffffffffff8111156200236657620023656200299e565b5b6200237485828601620021d7565b9150509250929050565b600060208284031215620023975762002396620029a3565b5b6000620023a7848285016200220a565b91505092915050565b620023bb8162002787565b82525050565b620023cc8162002787565b82525050565b620023dd816200279b565b82525050565b6000620023f183856200271f565b935062002400838584620027cf565b82840190509392505050565b60006200241982620026e7565b620024258185620026fd565b935062002437818560208601620027de565b6200244281620029a8565b840191505092915050565b60006200245a82620026e7565b6200246681856200270e565b935062002478818560208601620027de565b6200248381620029a8565b840191505092915050565b60006200249b82620026e7565b620024a781856200271f565b9350620024b9818560208601620027de565b80840191505092915050565b6000620024d4600083620026f2565b9150620024e182620029b9565b600082019050919050565b6000606083016000830151620025066000860182620023b0565b50602083015184820360208601526200252082826200240c565b9150506040830151620025376040860182620023b0565b508091505092915050565b6200254d81620027c5565b82525050565b600062002562828486620023e3565b91508190509392505050565b60006200257c82846200248e565b915081905092915050565b60006200259482620024c5565b9150819050919050565b6000602082019050620025b56000830184620023c1565b92915050565b6000602082019050620025d26000830184620023d2565b92915050565b60006020820190508181036000830152620025f481846200244d565b905092915050565b600060608201905081810360008301526200261881866200244d565b905081810360208301526200262e81856200244d565b90506200263f6040830184620023c1565b949350505050565b60006020820190508181036000830152620026638184620024ec565b905092915050565b600060208201905062002682600083018462002542565b92915050565b600062002694620026a7565b9050620026a282826200284a565b919050565b6000604051905090565b600067ffffffffffffffff821115620026cf57620026ce6200295b565b5b620026da82620029a8565b9050602081019050919050565b600081519050919050565b600081905092915050565b600082825260208201905092915050565b600082825260208201905092915050565b600081905092915050565b60006200273782620027c5565b91506200274483620027c5565b9250827fffffffffffffffffffffffffffffffffffffffffffffffffffffffffffffffff038211156200277c576200277b620028ce565b5b828201905092915050565b60006200279482620027a5565b9050919050565b6000819050919050565b600073ffffffffffffffffffffffffffffffffffffffff82169050919050565b6000819050919050565b82818337600083830152505050565b60005b83811015620027fe578082015181840152602081019050620027e1565b838111156200280e576000848401525b50505050565b600060028204905060018216806200282d57607f821691505b60208210811415620028445762002843620028fd565b5b50919050565b6200285582620029a8565b810181811067ffffffffffffffff821117156200287757620028766200295b565b5b80604052505050565b60006200288d82620027c5565b91507fffffffffffffffffffffffffffffffffffffffffffffffffffffffffffffffff821415620028c357620028c2620028ce565b5b600182019050919050565b7f4e487b7100000000000000000000000000000000000000000000000000000000600052601160045260246000fd5b7f4e487b7100000000000000000000000000000000000000000000000000000000600052602260045260246000fd5b7f4e487b7100000000000000000000000000000000000000000000000000000000600052603260045260246000fd5b7f4e487b7100000000000000000000000000000000000000000000000000000000600052604160045260246000fd5b600080fd5b600080fd5b600080fd5b600080fd5b600080fd5b600080fd5b6000601f19601f8301169050919050565b50565b620029c78162002787565b8114620029d357600080fd5b50565b620029e181620027c5565b8114620029ed57600080fd5b5056fe60806040523480156200001157600080fd5b5060405162000c9738038062000c97833981810160405281019062000037919062000282565b80600360006101000a81548173ffffffffffffffffffffffffffffffffffffffff021916908373ffffffffffffffffffffffffffffffffffffffff1602179055508260059080519060200190620000909291906200013d565b508160049080519060200190620000a99291906200013d565b503073ffffffffffffffffffffffffffffffffffffffff16600360009054906101000a900473ffffffffffffffffffffffffffffffffffffffff1673ffffffffffffffffffffffffffffffffffffffff167fb0c23c661f7a83f4f85f6009189862c40156b6a2676806c56313762b8ef05d2160046040516200012c9190620003a8565b60405180910390a3505050620005c4565b8280546200014b90620004bb565b90600052602060002090601f0160209004810192826200016f5760008555620001bb565b82601f106200018a57805160ff1916838001178555620001bb565b82800160010185558215620001bb579182015b82811115620001ba5782518255916020019190600101906200019d565b5b509050620001ca9190620001ce565b5090565b5b80821115620001e9576000816000905550600101620001cf565b5090565b600062000204620001fe84620003f5565b620003cc565b9050828152602081018484840111156200022357620002226200058a565b5b6200023084828562000485565b509392505050565b6000815190506200024981620005aa565b92915050565b600082601f83011262000267576200026662000585565b5b815162000279848260208601620001ed565b91505092915050565b6000806000606084860312156200029e576200029d62000594565b5b600084015167ffffffffffffffff811115620002bf57620002be6200058f565b5b620002cd868287016200024f565b935050602084015167ffffffffffffffff811115620002f157620002f06200058f565b5b620002ff868287016200024f565b9250506040620003128682870162000238565b9150509250925092565b600081546200032b81620004bb565b62000337818662000440565b9450600182166000811462000355576001811462000368576200039f565b60ff19831686526020860193506200039f565b62000373856200042b565b60005b83811015620003975781548189015260018201915060208101905062000376565b808801955050505b50505092915050565b60006020820190508181036000830152620003c481846200031c565b905092915050565b6000620003d8620003eb565b9050620003e68282620004f1565b919050565b6000604051905090565b600067ffffffffffffffff82111562000413576200041262000556565b5b6200041e8262000599565b9050602081019050919050565b60008190508160005260206000209050919050565b600082825260208201905092915050565b60006200045e8262000465565b9050919050565b600073ffffffffffffffffffffffffffffffffffffffff82169050919050565b60005b83811015620004a557808201518184015260208101905062000488565b83811115620004b5576000848401525b50505050565b60006002820490506001821680620004d457607f821691505b60208210811415620004eb57620004ea62000527565b5b50919050565b620004fc8262000599565b810181811067ffffffffffffffff821117156200051e576200051d62000556565b5b80604052505050565b7f4e487b7100000000000000000000000000000000000000000000000000000000600052602260045260246000fd5b7f4e487b7100000000000000000000000000000000000000000000000000000000600052604160045260246000fd5b600080fd5b600080fd5b600080fd5b600080fd5b6000601f19601f8301169050919050565b620005b58162000451565b8114620005c157600080fd5b50565b6106c380620005d46000396000f3fe60806040526004361061004e5760003560e01c80630fa91fa9146100675780632e1a7d4d146100a45780633e05f0f5146100cd578063ed88c68e1461010a578063f8b2cb4f146101145761005d565b3661005d5761005b610151565b005b610065610151565b005b34801561007357600080fd5b5061008e60048036038101906100899190610528565b61025f565b60405161009b91906105ab565b60405180910390f35b3480156100b057600080fd5b506100cb60048036038101906100c69190610528565b6102a7565b005b3480156100d957600080fd5b506100f460048036038101906100ef91906104fb565b610462565b60405161010191906105c6565b60405180910390f35b610112610151565b005b34801561012057600080fd5b5061013b600480360381019061013691906104fb565b6104ab565b60405161014891906105c6565b60405180910390f35b6002339080600181540180825580915050600190039060005260206000200160009091909190916101000a81548173ffffffffffffffffffffffffffffffffffffffff021916908373ffffffffffffffffffffffffffffffffffffffff16021790555034600160003373ffffffffffffffffffffffffffffffffffffffff1673ffffffffffffffffffffffffffffffffffffffff168152602001908152602001600020819055503073ffffffffffffffffffffffffffffffffffffffff163373ffffffffffffffffffffffffffffffffffffffff167f702ce8e2a7e3a8bc7ba50d9187386c652637c1e0a97f4c8ad4c2481e1ae0861a3460405161025591906105c6565b60405180910390a3565b60006002828154811061027557610274610628565b5b9060005260206000200160009054906101000a900473ffffffffffffffffffffffffffffffffffffffff169050919050565b600360009054906101000a900473ffffffffffffffffffffffffffffffffffffffff1673ffffffffffffffffffffffffffffffffffffffff163373ffffffffffffffffffffffffffffffffffffffff161461032e576040517fe0e48fa400000000000000000000000000000000000000000000000000000000815260040160405180910390fd5b60008190503073ffffffffffffffffffffffffffffffffffffffff16600360009054906101000a900473ffffffffffffffffffffffffffffffffffffffff1673ffffffffffffffffffffffffffffffffffffffff167f60a3bf8490aa32c80db056237a7c8321c0a03596ab5a9dffe3f32151b7254fb7836040516103b291906105c6565b60405180910390a360003373ffffffffffffffffffffffffffffffffffffffff16826040516103e090610596565b60006040518083038185875af1925050503d806000811461041d576040519150601f19603f3d011682016040523d82523d6000602084013e610422565b606091505b505090508061045d576040517faaf2e54b00000000000000000000000000000000000000000000000000000000815260040160405180910390fd5b505050565b6000600160008373ffffffffffffffffffffffffffffffffffffffff1673ffffffffffffffffffffffffffffffffffffffff168152602001908152602001600020549050919050565b6000808273ffffffffffffffffffffffffffffffffffffffff1631905080915050919050565b6000813590506104e08161065f565b92915050565b6000813590506104f581610676565b92915050565b60006020828403121561051157610510610657565b5b600061051f848285016104d1565b91505092915050565b60006020828403121561053e5761053d610657565b5b600061054c848285016104e6565b91505092915050565b61055e816105ec565b82525050565b60006105716000836105e1565b915061057c8261065c565b600082019050919050565b6105908161061e565b82525050565b60006105a182610564565b9150819050919050565b60006020820190506105c06000830184610555565b92915050565b60006020820190506105db6000830184610587565b92915050565b600081905092915050565b60006105f7826105fe565b9050919050565b600073ffffffffffffffffffffffffffffffffffffffff82169050919050565b6000819050919050565b7f4e487b7100000000000000000000000000000000000000000000000000000000600052603260045260246000fd5b600080fd5b50565b610668816105ec565b811461067357600080fd5b50565b61067f8161061e565b811461068a57600080fd5b5056fea2646970667358221220dcea46ac741c77c128fda3049dfc69b00db55e22e3233ad166ee8353713e650664736f6c63430008070033a264697066735822122025477052fb9469f8921b60f143b57633b3514655045514c3ca22b41d6513309f64736f6c63430008070033",
  "devdoc": {
    "author": "Olaoye Salem",
    "kind": "dev",
    "methods": {
      "createDonate(string,string)": {
        "params": {
          "_description": "the need for the fundraising",
          "campaignName": "the firstname of the recipient"
        }
      }
    },
    "title": "Donate factory contract",
    "version": 1
  },
  "userdoc": {
    "kind": "user",
    "methods": {
      "createDonate(string,string)": {
        "notice": "This function creates Donate by calling constructor of Donate"
      }
    },
    "notice": "A factory contract for the main FundMe contract",
    "version": 1
  },
  "storageLayout": {
    "storage": [
      {
        "astId": 19,
        "contract": "contracts/Donate.sol:DonateFactory",
        "label": "namesArray",
        "offset": 0,
        "slot": "0",
        "type": "t_array(t_string_storage)dyn_storage"
      },
      {
        "astId": 22,
        "contract": "contracts/Donate.sol:DonateFactory",
        "label": "creatorList",
        "offset": 0,
        "slot": "1",
        "type": "t_array(t_address)dyn_storage"
      },
      {
        "astId": 30,
        "contract": "contracts/Donate.sol:DonateFactory",
        "label": "funders",
        "offset": 0,
        "slot": "2",
        "type": "t_array(t_address)dyn_storage"
      },
      {
        "astId": 35,
        "contract": "contracts/Donate.sol:DonateFactory",
        "label": "listOfCreators",
        "offset": 0,
        "slot": "3",
        "type": "t_array(t_address)dyn_storage"
      },
      {
        "astId": 38,
        "contract": "contracts/Donate.sol:DonateFactory",
        "label": "hashedAddressList",
        "offset": 0,
        "slot": "4",
        "type": "t_array(t_bytes32)dyn_storage"
      },
      {
        "astId": 42,
        "contract": "contracts/Donate.sol:DonateFactory",
        "label": "nameToAddress",
        "offset": 0,
        "slot": "5",
        "type": "t_mapping(t_string_memory_ptr,t_address)"
      },
      {
        "astId": 46,
        "contract": "contracts/Donate.sol:DonateFactory",
        "label": "addressToAmountFunded",
        "offset": 0,
        "slot": "6",
        "type": "t_mapping(t_address,t_uint256)"
      },
      {
        "astId": 50,
        "contract": "contracts/Donate.sol:DonateFactory",
        "label": "creatorToCampaignCreated",
        "offset": 0,
        "slot": "7",
        "type": "t_mapping(t_address,t_address)"
      },
      {
        "astId": 55,
        "contract": "contracts/Donate.sol:DonateFactory",
        "label": "campaignNameToCreatorDetail",
        "offset": 0,
        "slot": "8",
        "type": "t_mapping(t_string_memory_ptr,t_struct(CreatorDetail)88_storage)"
      },
      {
        "astId": 60,
        "contract": "contracts/Donate.sol:DonateFactory",
        "label": "campaignAddressToCreatorDetail",
        "offset": 0,
        "slot": "9",
        "type": "t_mapping(t_address,t_struct(CreatorDetail)88_storage)"
      },
      {
        "astId": 65,
        "contract": "contracts/Donate.sol:DonateFactory",
        "label": "creatorToCreatorDetail",
        "offset": 0,
        "slot": "10",
        "type": "t_mapping(t_address,t_struct(CreatorDetail)88_storage)"
      },
      {
        "astId": 81,
        "contract": "contracts/Donate.sol:DonateFactory",
        "label": "creatorDetail",
        "offset": 0,
        "slot": "11",
        "type": "t_array(t_struct(CreatorDetail)88_storage)dyn_storage"
      }
    ],
    "types": {
      "t_address": {
        "encoding": "inplace",
        "label": "address",
        "numberOfBytes": "20"
      },
      "t_array(t_address)dyn_storage": {
        "base": "t_address",
        "encoding": "dynamic_array",
        "label": "address[]",
        "numberOfBytes": "32"
      },
      "t_array(t_bytes32)dyn_storage": {
        "base": "t_bytes32",
        "encoding": "dynamic_array",
        "label": "bytes32[]",
        "numberOfBytes": "32"
      },
      "t_array(t_string_storage)dyn_storage": {
        "base": "t_string_storage",
        "encoding": "dynamic_array",
        "label": "string[]",
        "numberOfBytes": "32"
      },
      "t_array(t_struct(CreatorDetail)88_storage)dyn_storage": {
        "base": "t_struct(CreatorDetail)88_storage",
        "encoding": "dynamic_array",
        "label": "struct DonateFactory.CreatorDetail[]",
        "numberOfBytes": "32"
      },
      "t_bytes32": {
        "encoding": "inplace",
        "label": "bytes32",
        "numberOfBytes": "32"
      },
      "t_mapping(t_address,t_address)": {
        "encoding": "mapping",
        "key": "t_address",
        "label": "mapping(address => address)",
        "numberOfBytes": "32",
        "value": "t_address"
      },
      "t_mapping(t_address,t_struct(CreatorDetail)88_storage)": {
        "encoding": "mapping",
        "key": "t_address",
        "label": "mapping(address => struct DonateFactory.CreatorDetail)",
        "numberOfBytes": "32",
        "value": "t_struct(CreatorDetail)88_storage"
      },
      "t_mapping(t_address,t_uint256)": {
        "encoding": "mapping",
        "key": "t_address",
        "label": "mapping(address => uint256)",
        "numberOfBytes": "32",
        "value": "t_uint256"
      },
      "t_mapping(t_string_memory_ptr,t_address)": {
        "encoding": "mapping",
        "key": "t_string_memory_ptr",
        "label": "mapping(string => address)",
        "numberOfBytes": "32",
        "value": "t_address"
      },
      "t_mapping(t_string_memory_ptr,t_struct(CreatorDetail)88_storage)": {
        "encoding": "mapping",
        "key": "t_string_memory_ptr",
        "label": "mapping(string => struct DonateFactory.CreatorDetail)",
        "numberOfBytes": "32",
        "value": "t_struct(CreatorDetail)88_storage"
      },
      "t_string_memory_ptr": {
        "encoding": "bytes",
        "label": "string",
        "numberOfBytes": "32"
      },
      "t_string_storage": {
        "encoding": "bytes",
        "label": "string",
        "numberOfBytes": "32"
      },
      "t_struct(CreatorDetail)88_storage": {
        "encoding": "inplace",
        "label": "struct DonateFactory.CreatorDetail",
        "members": [
          {
            "astId": 83,
            "contract": "contracts/Donate.sol:DonateFactory",
            "label": "campaignAddress",
            "offset": 0,
            "slot": "0",
            "type": "t_address"
          },
          {
            "astId": 85,
            "contract": "contracts/Donate.sol:DonateFactory",
            "label": "campaignName",
            "offset": 0,
            "slot": "1",
            "type": "t_string_storage"
          },
          {
            "astId": 87,
            "contract": "contracts/Donate.sol:DonateFactory",
            "label": "creator",
            "offset": 0,
            "slot": "2",
            "type": "t_address"
          }
        ],
        "numberOfBytes": "96"
      },
      "t_uint256": {
        "encoding": "inplace",
        "label": "uint256",
        "numberOfBytes": "32"
      }
    }
  }
}