{
  "address": "0xe7f1725E7734CE288F8367e1Bb143E90bb3F0512",
  "abi": [
    {
      "inputs": [],
      "stateMutability": "nonpayable",
      "type": "constructor"
    },
    {
      "stateMutability": "payable",
      "type": "fallback"
    },
    {
      "inputs": [],
      "name": "Fund",
      "outputs": [],
      "stateMutability": "payable",
      "type": "function"
    },
    {
      "inputs": [
        {
          "internalType": "address",
          "name": "",
          "type": "address"
        }
      ],
      "name": "addressToAmountFunded",
      "outputs": [
        {
          "internalType": "uint256",
          "name": "",
          "type": "uint256"
        }
      ],
      "stateMutability": "view",
      "type": "function"
    },
    {
      "inputs": [
        {
          "internalType": "uint256",
          "name": "",
          "type": "uint256"
        }
      ],
      "name": "amountToAddressFunded",
      "outputs": [
        {
          "internalType": "address",
          "name": "",
          "type": "address"
        }
      ],
      "stateMutability": "view",
      "type": "function"
    },
    {
      "inputs": [
        {
          "internalType": "string",
          "name": "_addressName",
          "type": "string"
        }
      ],
      "name": "createMyFunDity",
      "outputs": [
        {
          "internalType": "address",
          "name": "",
          "type": "address"
        }
      ],
      "stateMutability": "nonpayable",
      "type": "function"
    },
    {
      "inputs": [
        {
          "internalType": "uint256",
          "name": "",
          "type": "uint256"
        }
      ],
      "name": "f_funders",
      "outputs": [
        {
          "internalType": "address",
          "name": "",
          "type": "address"
        }
      ],
      "stateMutability": "view",
      "type": "function"
    },
    {
      "inputs": [
        {
          "internalType": "address payable",
          "name": "_address",
          "type": "address"
        },
        {
          "internalType": "uint256",
          "name": "_amount",
          "type": "uint256"
        }
      ],
      "name": "fundAddress",
      "outputs": [],
      "stateMutability": "payable",
      "type": "function"
    },
    {
      "inputs": [
        {
          "internalType": "uint256",
          "name": "",
          "type": "uint256"
        }
      ],
      "name": "funders",
      "outputs": [
        {
          "internalType": "address",
          "name": "",
          "type": "address"
        }
      ],
      "stateMutability": "view",
      "type": "function"
    },
    {
      "inputs": [
        {
          "internalType": "uint256",
          "name": "",
          "type": "uint256"
        }
      ],
      "name": "funditees",
      "outputs": [
        {
          "internalType": "address payable",
          "name": "funditeeAddress",
          "type": "address"
        },
        {
          "internalType": "string",
          "name": "name",
          "type": "string"
        }
      ],
      "stateMutability": "view",
      "type": "function"
    },
    {
      "inputs": [
        {
          "internalType": "address",
          "name": "_address",
          "type": "address"
        }
      ],
      "name": "getAddressBalance",
      "outputs": [
        {
          "internalType": "uint256",
          "name": "",
          "type": "uint256"
        }
      ],
      "stateMutability": "view",
      "type": "function"
    },
    {
      "inputs": [],
      "name": "highestFunder",
      "outputs": [
        {
          "internalType": "address",
          "name": "",
          "type": "address"
        }
      ],
      "stateMutability": "view",
      "type": "function"
    },
    {
      "inputs": [
        {
          "internalType": "string",
          "name": "",
          "type": "string"
        }
      ],
      "name": "nameToAddressCreated",
      "outputs": [
        {
          "internalType": "address",
          "name": "",
          "type": "address"
        }
      ],
      "stateMutability": "view",
      "type": "function"
    },
    {
      "inputs": [],
      "name": "withdraw",
      "outputs": [],
      "stateMutability": "nonpayable",
      "type": "function"
    },
    {
      "stateMutability": "payable",
      "type": "receive"
    }
  ],
  "transactionHash": "0xf724b5254836c575f9163561c8948fe4302367767e26d0927af4332be6710bf6",
  "args": [],
  "numDeployments": 1,
  "solcInputHash": "10331625f2fd7898638cf360cc47658d",
  "bytecode": "0x60a060405234801561001057600080fd5b503373ffffffffffffffffffffffffffffffffffffffff1660808173ffffffffffffffffffffffffffffffffffffffff1660601b8152505060805160601c6115a361006660003960006103f801526115a36000f3fe6080604052600436106100ab5760003560e01c80638ae83773116100645780638ae83773146101c7578063923b930a14610204578063943ee09d14610242578063a886a67a1461027f578063dc0d3dff146102bc578063efb2e5aa146102f9576100ba565b806335046722146100c45780633ccfd60b146101015780633e47d6f3146101185780635df8a1a3146101555780636ce1417e146101805780637282b2e81461018a576100ba565b366100ba576100b8610315565b005b6100c2610315565b005b3480156100d057600080fd5b506100eb60048036038101906100e69190610ed5565b6103d0565b6040516100f891906111dc565b60405180910390f35b34801561010d57600080fd5b506101166103f6565b005b34801561012457600080fd5b5061013f600480360381019061013a9190610ed5565b610603565b60405161014c91906111dc565b60405180910390f35b34801561016157600080fd5b5061016a61061b565b6040516101779190611131565b60405180910390f35b610188610315565b005b34801561019657600080fd5b506101b160048036038101906101ac9190610f42565b6107f8565b6040516101be9190611131565b60405180910390f35b3480156101d357600080fd5b506101ee60048036038101906101e99190610fd8565b610a05565b6040516101fb9190611131565b60405180910390f35b34801561021057600080fd5b5061022b60048036038101906102269190610fd8565b610a38565b60405161023992919061114c565b60405180910390f35b34801561024e57600080fd5b5061026960048036038101906102649190610f8f565b610b14565b6040516102769190611131565b60405180910390f35b34801561028b57600080fd5b506102a660048036038101906102a19190610fd8565b610b5d565b6040516102b39190611131565b60405180910390f35b3480156102c857600080fd5b506102e360048036038101906102de9190610fd8565b610b9c565b6040516102f09190611131565b60405180910390f35b610313600480360381019061030e9190610f02565b610bdb565b005b6000339080600181540180825580915050600190039060005260206000200160009091909190916101000a81548173ffffffffffffffffffffffffffffffffffffffff021916908373ffffffffffffffffffffffffffffffffffffffff16021790555034600260003373ffffffffffffffffffffffffffffffffffffffff1673ffffffffffffffffffffffffffffffffffffffff16815260200190815260200160002060008282546103c7919061127f565b92505081905550565b6000808273ffffffffffffffffffffffffffffffffffffffff1631905080915050919050565b7f000000000000000000000000000000000000000000000000000000000000000073ffffffffffffffffffffffffffffffffffffffff163373ffffffffffffffffffffffffffffffffffffffff161461044e57600080fd5b60005b6000805490508110156104f3576000600260008084815481106104775761047661146f565b5b9060005260206000200160009054906101000a900473ffffffffffffffffffffffffffffffffffffffff1673ffffffffffffffffffffffffffffffffffffffff1673ffffffffffffffffffffffffffffffffffffffff1681526020019081526020016000208190555080806104eb906113c8565b915050610451565b50600067ffffffffffffffff81111561050f5761050e61149e565b5b60405190808252806020026020018201604052801561053d5781602001602082028036833780820191505090505b5060009080519060200190610553929190610ca3565b5060003373ffffffffffffffffffffffffffffffffffffffff164760405161057a9061111c565b60006040518083038185875af1925050503d80600081146105b7576040519150601f19603f3d011682016040523d82523d6000602084013e6105bc565b606091505b5050905080610600576040517f08c379a00000000000000000000000000000000000000000000000000000000081526004016105f7906111bc565b60405180910390fd5b50565b60026020528060005260406000206000915090505481565b60008060026000806000815481106106365761063561146f565b5b9060005260206000200160009054906101000a900473ffffffffffffffffffffffffffffffffffffffff1673ffffffffffffffffffffffffffffffffffffffff1673ffffffffffffffffffffffffffffffffffffffff1681526020019081526020016000205490506000600190506000805490508110156107f257600260008083815481106106c8576106c761146f565b5b9060005260206000200160009054906101000a900473ffffffffffffffffffffffffffffffffffffffff1673ffffffffffffffffffffffffffffffffffffffff1673ffffffffffffffffffffffffffffffffffffffff168152602001908152602001600020548210156107b5576002600080838154811061074c5761074b61146f565b5b9060005260206000200160009054906101000a900473ffffffffffffffffffffffffffffffffffffffff1673ffffffffffffffffffffffffffffffffffffffff1673ffffffffffffffffffffffffffffffffffffffff1681526020019081526020016000205491505b6003600083815260200190815260200160002060009054906101000a900473ffffffffffffffffffffffffffffffffffffffff16925050506107f5565b50505b90565b60008083833342604051602001610812949392919061117c565b60405160208183030381529060405280519060200120905060008160001c905060008190506005819080600181540180825580915050600190039060005260206000200160009091909190916101000a81548173ffffffffffffffffffffffffffffffffffffffff021916908373ffffffffffffffffffffffffffffffffffffffff160217905550600760405180604001604052808373ffffffffffffffffffffffffffffffffffffffff16815260200188888080601f016020809104026020016040519081016040528093929190818152602001838380828437600081840152601f19601f82011690508083019250505050505050815250908060018154018082558091505060019003906000526020600020906002020160009091909190915060008201518160000160006101000a81548173ffffffffffffffffffffffffffffffffffffffff021916908373ffffffffffffffffffffffffffffffffffffffff1602179055506020820151816001019080519060200190610997929190610d2d565b50505080600487876040516109ad929190611103565b908152602001604051809103902060006101000a81548173ffffffffffffffffffffffffffffffffffffffff021916908373ffffffffffffffffffffffffffffffffffffffff16021790555080935050505092915050565b60036020528060005260406000206000915054906101000a900473ffffffffffffffffffffffffffffffffffffffff1681565b60078181548110610a4857600080fd5b90600052602060002090600202016000915090508060000160009054906101000a900473ffffffffffffffffffffffffffffffffffffffff1690806001018054610a9190611365565b80601f0160208091040260200160405190810160405280929190818152602001828054610abd90611365565b8015610b0a5780601f10610adf57610100808354040283529160200191610b0a565b820191906000526020600020905b815481529060010190602001808311610aed57829003601f168201915b5050505050905082565b6004818051602081018201805184825260208301602085012081835280955050505050506000915054906101000a900473ffffffffffffffffffffffffffffffffffffffff1681565b60018181548110610b6d57600080fd5b906000526020600020016000915054906101000a900473ffffffffffffffffffffffffffffffffffffffff1681565b60008181548110610bac57600080fd5b906000526020600020016000915054906101000a900473ffffffffffffffffffffffffffffffffffffffff1681565b600047905060008247610bee919061127f565b905060008473ffffffffffffffffffffffffffffffffffffffff1684604051610c169061111c565b60006040518083038185875af1925050503d8060008114610c53576040519150601f19603f3d011682016040523d82523d6000602084013e610c58565b606091505b5050905080610c9c576040517f08c379a0000000000000000000000000000000000000000000000000000000008152600401610c93906111bc565b60405180910390fd5b5050505050565b828054828255906000526020600020908101928215610d1c579160200282015b82811115610d1b5782518260006101000a81548173ffffffffffffffffffffffffffffffffffffffff021916908373ffffffffffffffffffffffffffffffffffffffff16021790555091602001919060010190610cc3565b5b509050610d299190610db3565b5090565b828054610d3990611365565b90600052602060002090601f016020900481019282610d5b5760008555610da2565b82601f10610d7457805160ff1916838001178555610da2565b82800160010185558215610da2579182015b82811115610da1578251825591602001919060010190610d86565b5b509050610daf9190610db3565b5090565b5b80821115610dcc576000816000905550600101610db4565b5090565b6000610de3610dde8461121c565b6111f7565b905082815260208101848484011115610dff57610dfe6114dc565b5b610e0a848285611323565b509392505050565b600081359050610e2181611528565b92915050565b600081359050610e368161153f565b92915050565b60008083601f840112610e5257610e516114d2565b5b8235905067ffffffffffffffff811115610e6f57610e6e6114cd565b5b602083019150836001820283011115610e8b57610e8a6114d7565b5b9250929050565b600082601f830112610ea757610ea66114d2565b5b8135610eb7848260208601610dd0565b91505092915050565b600081359050610ecf81611556565b92915050565b600060208284031215610eeb57610eea6114e6565b5b6000610ef984828501610e12565b91505092915050565b60008060408385031215610f1957610f186114e6565b5b6000610f2785828601610e27565b9250506020610f3885828601610ec0565b9150509250929050565b60008060208385031215610f5957610f586114e6565b5b600083013567ffffffffffffffff811115610f7757610f766114e1565b5b610f8385828601610e3c565b92509250509250929050565b600060208284031215610fa557610fa46114e6565b5b600082013567ffffffffffffffff811115610fc357610fc26114e1565b5b610fcf84828501610e92565b91505092915050565b600060208284031215610fee57610fed6114e6565b5b6000610ffc84828501610ec0565b91505092915050565b61100e816112e7565b82525050565b61101d816112d5565b82525050565b600061102f8385611263565b935061103c838584611323565b611045836114eb565b840190509392505050565b600061105c8385611274565b9350611069838584611323565b82840190509392505050565b60006110808261124d565b61108a8185611263565b935061109a818560208601611332565b6110a3816114eb565b840191505092915050565b60006110bb600b83611263565b91506110c6826114fc565b602082019050919050565b60006110de600083611258565b91506110e982611525565b600082019050919050565b6110fd81611319565b82525050565b6000611110828486611050565b91508190509392505050565b6000611127826110d1565b9150819050919050565b60006020820190506111466000830184611014565b92915050565b60006040820190506111616000830185611005565b81810360208301526111738184611075565b90509392505050565b60006060820190508181036000830152611197818688611023565b90506111a66020830185611014565b6111b360408301846110f4565b95945050505050565b600060208201905081810360008301526111d5816110ae565b9050919050565b60006020820190506111f160008301846110f4565b92915050565b6000611201611212565b905061120d8282611397565b919050565b6000604051905090565b600067ffffffffffffffff8211156112375761123661149e565b5b611240826114eb565b9050602081019050919050565b600081519050919050565b600081905092915050565b600082825260208201905092915050565b600081905092915050565b600061128a82611319565b915061129583611319565b9250827fffffffffffffffffffffffffffffffffffffffffffffffffffffffffffffffff038211156112ca576112c9611411565b5b828201905092915050565b60006112e0826112f9565b9050919050565b60006112f2826112f9565b9050919050565b600073ffffffffffffffffffffffffffffffffffffffff82169050919050565b6000819050919050565b82818337600083830152505050565b60005b83811015611350578082015181840152602081019050611335565b8381111561135f576000848401525b50505050565b6000600282049050600182168061137d57607f821691505b6020821081141561139157611390611440565b5b50919050565b6113a0826114eb565b810181811067ffffffffffffffff821117156113bf576113be61149e565b5b80604052505050565b60006113d382611319565b91507fffffffffffffffffffffffffffffffffffffffffffffffffffffffffffffffff82141561140657611405611411565b5b600182019050919050565b7f4e487b7100000000000000000000000000000000000000000000000000000000600052601160045260246000fd5b7f4e487b7100000000000000000000000000000000000000000000000000000000600052602260045260246000fd5b7f4e487b7100000000000000000000000000000000000000000000000000000000600052603260045260246000fd5b7f4e487b7100000000000000000000000000000000000000000000000000000000600052604160045260246000fd5b600080fd5b600080fd5b600080fd5b600080fd5b600080fd5b600080fd5b6000601f19601f8301169050919050565b7f63616c6c204661696c6564000000000000000000000000000000000000000000600082015250565b50565b611531816112d5565b811461153c57600080fd5b50565b611548816112e7565b811461155357600080fd5b50565b61155f81611319565b811461156a57600080fd5b5056fea26469706673582212204e2b8aa4ce1ba9be1ffe6ef6b681cc34c1bf25cb6b4a13b931b0ab8426b8b7e264736f6c63430008070033",
  "devdoc": {
    "author": "Olaoye Salem",
    "details": "This implements price feeds as our library",
    "kind": "dev",
    "methods": {},
    "title": "A contract for crowd funding",
    "version": 1
  },
  "userdoc": {
    "kind": "user",
    "methods": {},
    "notice": "This contract is to demo a sample funding contract",
    "version": 1
  },
  "storageLayout": {
    "storage": [
      {
        "astId": 12,
        "contract": "contracts/FundMe.sol:FundMe",
        "label": "funders",
        "offset": 0,
        "slot": "0",
        "type": "t_array(t_address)dyn_storage"
      },
      {
        "astId": 15,
        "contract": "contracts/FundMe.sol:FundMe",
        "label": "f_funders",
        "offset": 0,
        "slot": "1",
        "type": "t_array(t_address)dyn_storage"
      },
      {
        "astId": 19,
        "contract": "contracts/FundMe.sol:FundMe",
        "label": "addressToAmountFunded",
        "offset": 0,
        "slot": "2",
        "type": "t_mapping(t_address,t_uint256)"
      },
      {
        "astId": 23,
        "contract": "contracts/FundMe.sol:FundMe",
        "label": "amountToAddressFunded",
        "offset": 0,
        "slot": "3",
        "type": "t_mapping(t_uint256,t_address)"
      },
      {
        "astId": 27,
        "contract": "contracts/FundMe.sol:FundMe",
        "label": "nameToAddressCreated",
        "offset": 0,
        "slot": "4",
        "type": "t_mapping(t_string_memory_ptr,t_address)"
      },
      {
        "astId": 30,
        "contract": "contracts/FundMe.sol:FundMe",
        "label": "listOfFunDityAddresses",
        "offset": 0,
        "slot": "5",
        "type": "t_array(t_address)dyn_storage"
      },
      {
        "astId": 34,
        "contract": "contracts/FundMe.sol:FundMe",
        "label": "f_nameToAddress",
        "offset": 0,
        "slot": "6",
        "type": "t_mapping(t_address,t_string_storage)"
      },
      {
        "astId": 38,
        "contract": "contracts/FundMe.sol:FundMe",
        "label": "funditees",
        "offset": 0,
        "slot": "7",
        "type": "t_array(t_struct(FunDitees)43_storage)dyn_storage"
      }
    ],
    "types": {
      "t_address": {
        "encoding": "inplace",
        "label": "address",
        "numberOfBytes": "20"
      },
      "t_address_payable": {
        "encoding": "inplace",
        "label": "address payable",
        "numberOfBytes": "20"
      },
      "t_array(t_address)dyn_storage": {
        "base": "t_address",
        "encoding": "dynamic_array",
        "label": "address[]",
        "numberOfBytes": "32"
      },
      "t_array(t_struct(FunDitees)43_storage)dyn_storage": {
        "base": "t_struct(FunDitees)43_storage",
        "encoding": "dynamic_array",
        "label": "struct FundMe.FunDitees[]",
        "numberOfBytes": "32"
      },
      "t_mapping(t_address,t_string_storage)": {
        "encoding": "mapping",
        "key": "t_address",
        "label": "mapping(address => string)",
        "numberOfBytes": "32",
        "value": "t_string_storage"
      },
      "t_mapping(t_address,t_uint256)": {
        "encoding": "mapping",
        "key": "t_address",
        "label": "mapping(address => uint256)",
        "numberOfBytes": "32",
        "value": "t_uint256"
      },
      "t_mapping(t_string_memory_ptr,t_address)": {
        "encoding": "mapping",
        "key": "t_string_memory_ptr",
        "label": "mapping(string => address)",
        "numberOfBytes": "32",
        "value": "t_address"
      },
      "t_mapping(t_uint256,t_address)": {
        "encoding": "mapping",
        "key": "t_uint256",
        "label": "mapping(uint256 => address)",
        "numberOfBytes": "32",
        "value": "t_address"
      },
      "t_string_memory_ptr": {
        "encoding": "bytes",
        "label": "string",
        "numberOfBytes": "32"
      },
      "t_string_storage": {
        "encoding": "bytes",
        "label": "string",
        "numberOfBytes": "32"
      },
      "t_struct(FunDitees)43_storage": {
        "encoding": "inplace",
        "label": "struct FundMe.FunDitees",
        "members": [
          {
            "astId": 40,
            "contract": "contracts/FundMe.sol:FundMe",
            "label": "funditeeAddress",
            "offset": 0,
            "slot": "0",
            "type": "t_address_payable"
          },
          {
            "astId": 42,
            "contract": "contracts/FundMe.sol:FundMe",
            "label": "name",
            "offset": 0,
            "slot": "1",
            "type": "t_string_storage"
          }
        ],
        "numberOfBytes": "64"
      },
      "t_uint256": {
        "encoding": "inplace",
        "label": "uint256",
        "numberOfBytes": "32"
      }
    }
  }
}