{
  "address": "0xe7f1725E7734CE288F8367e1Bb143E90bb3F0512",
  "abi": [
    {
      "inputs": [],
      "stateMutability": "nonpayable",
      "type": "constructor"
    },
    {
      "stateMutability": "payable",
      "type": "fallback"
    },
    {
      "inputs": [],
      "name": "Fund",
      "outputs": [],
      "stateMutability": "payable",
      "type": "function"
    },
    {
      "inputs": [
        {
          "internalType": "address",
          "name": "",
          "type": "address"
        }
      ],
      "name": "addressToAmountFunded",
      "outputs": [
        {
          "internalType": "uint256",
          "name": "",
          "type": "uint256"
        }
      ],
      "stateMutability": "view",
      "type": "function"
    },
    {
      "inputs": [
        {
          "internalType": "uint256",
          "name": "",
          "type": "uint256"
        }
      ],
      "name": "amountToAddressFunded",
      "outputs": [
        {
          "internalType": "address",
          "name": "",
          "type": "address"
        }
      ],
      "stateMutability": "view",
      "type": "function"
    },
    {
      "inputs": [
        {
          "internalType": "string",
          "name": "_addressName",
          "type": "string"
        }
      ],
      "name": "createMyFunDity",
      "outputs": [
        {
          "internalType": "address",
          "name": "",
          "type": "address"
        }
      ],
      "stateMutability": "nonpayable",
      "type": "function"
    },
    {
      "inputs": [
        {
          "internalType": "uint256",
          "name": "",
          "type": "uint256"
        }
      ],
      "name": "f_funders",
      "outputs": [
        {
          "internalType": "address",
          "name": "",
          "type": "address"
        }
      ],
      "stateMutability": "view",
      "type": "function"
    },
    {
      "inputs": [
        {
          "internalType": "address payable",
          "name": "_address",
          "type": "address"
        },
        {
          "internalType": "uint256",
          "name": "_amount",
          "type": "uint256"
        }
      ],
      "name": "fundAddress",
      "outputs": [],
      "stateMutability": "payable",
      "type": "function"
    },
    {
      "inputs": [
        {
          "internalType": "uint256",
          "name": "",
          "type": "uint256"
        }
      ],
      "name": "funders",
      "outputs": [
        {
          "internalType": "address",
          "name": "",
          "type": "address"
        }
      ],
      "stateMutability": "view",
      "type": "function"
    },
    {
      "inputs": [
        {
          "internalType": "uint256",
          "name": "",
          "type": "uint256"
        }
      ],
      "name": "funditees",
      "outputs": [
        {
          "internalType": "address payable",
          "name": "funditeeAddress",
          "type": "address"
        },
        {
          "internalType": "string",
          "name": "name",
          "type": "string"
        }
      ],
      "stateMutability": "view",
      "type": "function"
    },
    {
      "inputs": [
        {
          "internalType": "address",
          "name": "_address",
          "type": "address"
        }
      ],
      "name": "getAddressBalance",
      "outputs": [
        {
          "internalType": "uint256",
          "name": "",
          "type": "uint256"
        }
      ],
      "stateMutability": "view",
      "type": "function"
    },
    {
      "inputs": [],
      "name": "highestFunder",
      "outputs": [
        {
          "internalType": "address",
          "name": "",
          "type": "address"
        }
      ],
      "stateMutability": "view",
      "type": "function"
    },
    {
      "inputs": [],
      "name": "withdraw",
      "outputs": [],
      "stateMutability": "nonpayable",
      "type": "function"
    },
    {
      "stateMutability": "payable",
      "type": "receive"
    }
  ],
  "transactionHash": "0x400b0e16eead5be3b622db1b5848b956213f6e366938eedb8698ee23c01935e0",
  "args": [],
  "numDeployments": 1,
  "solcInputHash": "d203c5c223c308edccb0be90c9e113f9",
  "bytecode": "0x60a060405234801561001057600080fd5b503373ffffffffffffffffffffffffffffffffffffffff1660808173ffffffffffffffffffffffffffffffffffffffff1660601b8152505060805160601c61132561006660003960006103b001526113256000f3fe6080604052600436106100a05760003560e01c80637282b2e8116100645780637282b2e81461017f5780638ae83773146101bc578063923b930a146101f9578063a886a67a14610237578063dc0d3dff14610274578063efb2e5aa146102b1576100af565b806335046722146100b95780633ccfd60b146100f65780633e47d6f31461010d5780635df8a1a31461014a5780636ce1417e14610175576100af565b366100af576100ad6102cd565b005b6100b76102cd565b005b3480156100c557600080fd5b506100e060048036038101906100db9190610d75565b610388565b6040516100ed9190610ff5565b60405180910390f35b34801561010257600080fd5b5061010b6103ae565b005b34801561011957600080fd5b50610134600480360381019061012f9190610d75565b6105bb565b6040516101419190610ff5565b60405180910390f35b34801561015657600080fd5b5061015f6105d3565b60405161016c9190610f4a565b60405180910390f35b61017d6102cd565b005b34801561018b57600080fd5b506101a660048036038101906101a19190610de2565b6107b0565b6040516101b39190610f4a565b60405180910390f35b3480156101c857600080fd5b506101e360048036038101906101de9190610e2f565b61095e565b6040516101f09190610f4a565b60405180910390f35b34801561020557600080fd5b50610220600480360381019061021b9190610e2f565b610991565b60405161022e929190610f65565b60405180910390f35b34801561024357600080fd5b5061025e60048036038101906102599190610e2f565b610a6d565b60405161026b9190610f4a565b60405180910390f35b34801561028057600080fd5b5061029b60048036038101906102969190610e2f565b610aac565b6040516102a89190610f4a565b60405180910390f35b6102cb60048036038101906102c69190610da2565b610aeb565b005b6000339080600181540180825580915050600190039060005260206000200160009091909190916101000a81548173ffffffffffffffffffffffffffffffffffffffff021916908373ffffffffffffffffffffffffffffffffffffffff16021790555034600260003373ffffffffffffffffffffffffffffffffffffffff1673ffffffffffffffffffffffffffffffffffffffff168152602001908152602001600020600082825461037f9190611037565b92505081905550565b6000808273ffffffffffffffffffffffffffffffffffffffff1631905080915050919050565b7f000000000000000000000000000000000000000000000000000000000000000073ffffffffffffffffffffffffffffffffffffffff163373ffffffffffffffffffffffffffffffffffffffff161461040657600080fd5b60005b6000805490508110156104ab5760006002600080848154811061042f5761042e6111f6565b5b9060005260206000200160009054906101000a900473ffffffffffffffffffffffffffffffffffffffff1673ffffffffffffffffffffffffffffffffffffffff1673ffffffffffffffffffffffffffffffffffffffff1681526020019081526020016000208190555080806104a39061114f565b915050610409565b50600067ffffffffffffffff8111156104c7576104c6611225565b5b6040519080825280602002602001820160405280156104f55781602001602082028036833780820191505090505b506000908051906020019061050b929190610bb3565b5060003373ffffffffffffffffffffffffffffffffffffffff164760405161053290610f35565b60006040518083038185875af1925050503d806000811461056f576040519150601f19603f3d011682016040523d82523d6000602084013e610574565b606091505b50509050806105b8576040517f08c379a00000000000000000000000000000000000000000000000000000000081526004016105af90610fd5565b60405180910390fd5b50565b60026020528060005260406000206000915090505481565b60008060026000806000815481106105ee576105ed6111f6565b5b9060005260206000200160009054906101000a900473ffffffffffffffffffffffffffffffffffffffff1673ffffffffffffffffffffffffffffffffffffffff1673ffffffffffffffffffffffffffffffffffffffff1681526020019081526020016000205490506000600190506000805490508110156107aa57600260008083815481106106805761067f6111f6565b5b9060005260206000200160009054906101000a900473ffffffffffffffffffffffffffffffffffffffff1673ffffffffffffffffffffffffffffffffffffffff1673ffffffffffffffffffffffffffffffffffffffff1681526020019081526020016000205482101561076d5760026000808381548110610704576107036111f6565b5b9060005260206000200160009054906101000a900473ffffffffffffffffffffffffffffffffffffffff1673ffffffffffffffffffffffffffffffffffffffff1673ffffffffffffffffffffffffffffffffffffffff1681526020019081526020016000205491505b6003600083815260200190815260200160002060009054906101000a900473ffffffffffffffffffffffffffffffffffffffff16925050506107ad565b50505b90565b600080838333426040516020016107ca9493929190610f95565b60405160208183030381529060405280519060200120905060008160001c905060008190506004819080600181540180825580915050600190039060005260206000200160009091909190916101000a81548173ffffffffffffffffffffffffffffffffffffffff021916908373ffffffffffffffffffffffffffffffffffffffff160217905550600660405180604001604052808373ffffffffffffffffffffffffffffffffffffffff16815260200188888080601f016020809104026020016040519081016040528093929190818152602001838380828437600081840152601f19601f82011690508083019250505050505050815250908060018154018082558091505060019003906000526020600020906002020160009091909190915060008201518160000160006101000a81548173ffffffffffffffffffffffffffffffffffffffff021916908373ffffffffffffffffffffffffffffffffffffffff160217905550602082015181600101908051906020019061094f929190610c3d565b50505080935050505092915050565b60036020528060005260406000206000915054906101000a900473ffffffffffffffffffffffffffffffffffffffff1681565b600681815481106109a157600080fd5b90600052602060002090600202016000915090508060000160009054906101000a900473ffffffffffffffffffffffffffffffffffffffff16908060010180546109ea9061111d565b80601f0160208091040260200160405190810160405280929190818152602001828054610a169061111d565b8015610a635780601f10610a3857610100808354040283529160200191610a63565b820191906000526020600020905b815481529060010190602001808311610a4657829003601f168201915b5050505050905082565b60018181548110610a7d57600080fd5b906000526020600020016000915054906101000a900473ffffffffffffffffffffffffffffffffffffffff1681565b60008181548110610abc57600080fd5b906000526020600020016000915054906101000a900473ffffffffffffffffffffffffffffffffffffffff1681565b600047905060008247610afe9190611037565b905060008473ffffffffffffffffffffffffffffffffffffffff1684604051610b2690610f35565b60006040518083038185875af1925050503d8060008114610b63576040519150601f19603f3d011682016040523d82523d6000602084013e610b68565b606091505b5050905080610bac576040517f08c379a0000000000000000000000000000000000000000000000000000000008152600401610ba390610fd5565b60405180910390fd5b5050505050565b828054828255906000526020600020908101928215610c2c579160200282015b82811115610c2b5782518260006101000a81548173ffffffffffffffffffffffffffffffffffffffff021916908373ffffffffffffffffffffffffffffffffffffffff16021790555091602001919060010190610bd3565b5b509050610c399190610cc3565b5090565b828054610c499061111d565b90600052602060002090601f016020900481019282610c6b5760008555610cb2565b82601f10610c8457805160ff1916838001178555610cb2565b82800160010185558215610cb2579182015b82811115610cb1578251825591602001919060010190610c96565b5b509050610cbf9190610cc3565b5090565b5b80821115610cdc576000816000905550600101610cc4565b5090565b600081359050610cef816112aa565b92915050565b600081359050610d04816112c1565b92915050565b60008083601f840112610d2057610d1f611259565b5b8235905067ffffffffffffffff811115610d3d57610d3c611254565b5b602083019150836001820283011115610d5957610d5861125e565b5b9250929050565b600081359050610d6f816112d8565b92915050565b600060208284031215610d8b57610d8a611268565b5b6000610d9984828501610ce0565b91505092915050565b60008060408385031215610db957610db8611268565b5b6000610dc785828601610cf5565b9250506020610dd885828601610d60565b9150509250929050565b60008060208385031215610df957610df8611268565b5b600083013567ffffffffffffffff811115610e1757610e16611263565b5b610e2385828601610d0a565b92509250509250929050565b600060208284031215610e4557610e44611268565b5b6000610e5384828501610d60565b91505092915050565b610e658161109f565b82525050565b610e748161108d565b82525050565b6000610e868385611026565b9350610e938385846110db565b610e9c8361126d565b840190509392505050565b6000610eb282611010565b610ebc8185611026565b9350610ecc8185602086016110ea565b610ed58161126d565b840191505092915050565b6000610eed600b83611026565b9150610ef88261127e565b602082019050919050565b6000610f1060008361101b565b9150610f1b826112a7565b600082019050919050565b610f2f816110d1565b82525050565b6000610f4082610f03565b9150819050919050565b6000602082019050610f5f6000830184610e6b565b92915050565b6000604082019050610f7a6000830185610e5c565b8181036020830152610f8c8184610ea7565b90509392505050565b60006060820190508181036000830152610fb0818688610e7a565b9050610fbf6020830185610e6b565b610fcc6040830184610f26565b95945050505050565b60006020820190508181036000830152610fee81610ee0565b9050919050565b600060208201905061100a6000830184610f26565b92915050565b600081519050919050565b600081905092915050565b600082825260208201905092915050565b6000611042826110d1565b915061104d836110d1565b9250827fffffffffffffffffffffffffffffffffffffffffffffffffffffffffffffffff0382111561108257611081611198565b5b828201905092915050565b6000611098826110b1565b9050919050565b60006110aa826110b1565b9050919050565b600073ffffffffffffffffffffffffffffffffffffffff82169050919050565b6000819050919050565b82818337600083830152505050565b60005b838110156111085780820151818401526020810190506110ed565b83811115611117576000848401525b50505050565b6000600282049050600182168061113557607f821691505b60208210811415611149576111486111c7565b5b50919050565b600061115a826110d1565b91507fffffffffffffffffffffffffffffffffffffffffffffffffffffffffffffffff82141561118d5761118c611198565b5b600182019050919050565b7f4e487b7100000000000000000000000000000000000000000000000000000000600052601160045260246000fd5b7f4e487b7100000000000000000000000000000000000000000000000000000000600052602260045260246000fd5b7f4e487b7100000000000000000000000000000000000000000000000000000000600052603260045260246000fd5b7f4e487b7100000000000000000000000000000000000000000000000000000000600052604160045260246000fd5b600080fd5b600080fd5b600080fd5b600080fd5b600080fd5b6000601f19601f8301169050919050565b7f63616c6c204661696c6564000000000000000000000000000000000000000000600082015250565b50565b6112b38161108d565b81146112be57600080fd5b50565b6112ca8161109f565b81146112d557600080fd5b50565b6112e1816110d1565b81146112ec57600080fd5b5056fea2646970667358221220a038ab23095850405d84414134baf5bca8d6e38d26b1c8e316db5731f8684dc564736f6c63430008070033",
  "devdoc": {
    "author": "Olaoye Salem",
    "details": "This implements price feeds as our library",
    "kind": "dev",
    "methods": {},
    "title": "A contract for crowd funding",
    "version": 1
  },
  "userdoc": {
    "kind": "user",
    "methods": {},
    "notice": "This contract is to demo a sample funding contract",
    "version": 1
  },
  "storageLayout": {
    "storage": [
      {
        "astId": 12,
        "contract": "contracts/FundMe.sol:FundMe",
        "label": "funders",
        "offset": 0,
        "slot": "0",
        "type": "t_array(t_address)dyn_storage"
      },
      {
        "astId": 15,
        "contract": "contracts/FundMe.sol:FundMe",
        "label": "f_funders",
        "offset": 0,
        "slot": "1",
        "type": "t_array(t_address)dyn_storage"
      },
      {
        "astId": 19,
        "contract": "contracts/FundMe.sol:FundMe",
        "label": "addressToAmountFunded",
        "offset": 0,
        "slot": "2",
        "type": "t_mapping(t_address,t_uint256)"
      },
      {
        "astId": 23,
        "contract": "contracts/FundMe.sol:FundMe",
        "label": "amountToAddressFunded",
        "offset": 0,
        "slot": "3",
        "type": "t_mapping(t_uint256,t_address)"
      },
      {
        "astId": 26,
        "contract": "contracts/FundMe.sol:FundMe",
        "label": "listOfFunDityAddresses",
        "offset": 0,
        "slot": "4",
        "type": "t_array(t_address)dyn_storage"
      },
      {
        "astId": 30,
        "contract": "contracts/FundMe.sol:FundMe",
        "label": "f_nameToAddress",
        "offset": 0,
        "slot": "5",
        "type": "t_mapping(t_address,t_string_storage)"
      },
      {
        "astId": 34,
        "contract": "contracts/FundMe.sol:FundMe",
        "label": "funditees",
        "offset": 0,
        "slot": "6",
        "type": "t_array(t_struct(FunDitees)39_storage)dyn_storage"
      }
    ],
    "types": {
      "t_address": {
        "encoding": "inplace",
        "label": "address",
        "numberOfBytes": "20"
      },
      "t_address_payable": {
        "encoding": "inplace",
        "label": "address payable",
        "numberOfBytes": "20"
      },
      "t_array(t_address)dyn_storage": {
        "base": "t_address",
        "encoding": "dynamic_array",
        "label": "address[]",
        "numberOfBytes": "32"
      },
      "t_array(t_struct(FunDitees)39_storage)dyn_storage": {
        "base": "t_struct(FunDitees)39_storage",
        "encoding": "dynamic_array",
        "label": "struct FundMe.FunDitees[]",
        "numberOfBytes": "32"
      },
      "t_mapping(t_address,t_string_storage)": {
        "encoding": "mapping",
        "key": "t_address",
        "label": "mapping(address => string)",
        "numberOfBytes": "32",
        "value": "t_string_storage"
      },
      "t_mapping(t_address,t_uint256)": {
        "encoding": "mapping",
        "key": "t_address",
        "label": "mapping(address => uint256)",
        "numberOfBytes": "32",
        "value": "t_uint256"
      },
      "t_mapping(t_uint256,t_address)": {
        "encoding": "mapping",
        "key": "t_uint256",
        "label": "mapping(uint256 => address)",
        "numberOfBytes": "32",
        "value": "t_address"
      },
      "t_string_storage": {
        "encoding": "bytes",
        "label": "string",
        "numberOfBytes": "32"
      },
      "t_struct(FunDitees)39_storage": {
        "encoding": "inplace",
        "label": "struct FundMe.FunDitees",
        "members": [
          {
            "astId": 36,
            "contract": "contracts/FundMe.sol:FundMe",
            "label": "funditeeAddress",
            "offset": 0,
            "slot": "0",
            "type": "t_address_payable"
          },
          {
            "astId": 38,
            "contract": "contracts/FundMe.sol:FundMe",
            "label": "name",
            "offset": 0,
            "slot": "1",
            "type": "t_string_storage"
          }
        ],
        "numberOfBytes": "64"
      },
      "t_uint256": {
        "encoding": "inplace",
        "label": "uint256",
        "numberOfBytes": "32"
      }
    }
  }
}