{
  "address": "0x3200E6a3dD7A6D7396D3506786C1016C777ffFFA",
  "abi": [
    {
      "inputs": [],
      "stateMutability": "nonpayable",
      "type": "constructor"
    },
    {
      "inputs": [],
      "name": "Fund",
      "outputs": [],
      "stateMutability": "payable",
      "type": "function"
    },
    {
      "inputs": [
        {
          "internalType": "address",
          "name": "",
          "type": "address"
        }
      ],
      "name": "addressToAmountFunded",
      "outputs": [
        {
          "internalType": "uint256",
          "name": "",
          "type": "uint256"
        }
      ],
      "stateMutability": "view",
      "type": "function"
    },
    {
      "inputs": [],
      "name": "balance",
      "outputs": [
        {
          "internalType": "uint256",
          "name": "",
          "type": "uint256"
        }
      ],
      "stateMutability": "view",
      "type": "function"
    },
    {
      "inputs": [
        {
          "internalType": "string",
          "name": "campaignName",
          "type": "string"
        },
        {
          "internalType": "string",
          "name": "_description",
          "type": "string"
        }
      ],
      "name": "createDonate",
      "outputs": [],
      "stateMutability": "nonpayable",
      "type": "function"
    },
    {
      "inputs": [
        {
          "internalType": "uint256",
          "name": "",
          "type": "uint256"
        }
      ],
      "name": "deployedFundraisers",
      "outputs": [
        {
          "internalType": "address",
          "name": "",
          "type": "address"
        }
      ],
      "stateMutability": "view",
      "type": "function"
    },
    {
      "inputs": [
        {
          "internalType": "uint256",
          "name": "",
          "type": "uint256"
        }
      ],
      "name": "funders",
      "outputs": [
        {
          "internalType": "address",
          "name": "",
          "type": "address"
        }
      ],
      "stateMutability": "view",
      "type": "function"
    },
    {
      "inputs": [
        {
          "internalType": "string",
          "name": "",
          "type": "string"
        }
      ],
      "name": "nameToAddress",
      "outputs": [
        {
          "internalType": "address",
          "name": "",
          "type": "address"
        }
      ],
      "stateMutability": "view",
      "type": "function"
    },
    {
      "inputs": [],
      "name": "withdraw",
      "outputs": [],
      "stateMutability": "nonpayable",
      "type": "function"
    }
  ],
  "transactionHash": "0x6261f4878479f4869cc219d096b539eae7c0602a0390e19a2bfa4128fea4b58b",
  "args": [],
  "numDeployments": 1,
  "solcInputHash": "3a3d5578350e312e054037562fd66a6d",
  "bytecode": "0x608060405234801561001057600080fd5b5033600560006101000a81548173ffffffffffffffffffffffffffffffffffffffff021916908373ffffffffffffffffffffffffffffffffffffffff1602179055506119dd806100616000396000f3fe608060405260043610620000865760003560e01c80636ce1417e11620000555780636ce1417e1462000171578063b69ef8a8146200017d578063dc0d3dff14620001ad578063eeb7d48c14620001f15762000086565b806308d88aad146200008b5780632022285914620000cf5780633ccfd60b14620001135780633e47d6f3146200012d575b600080fd5b3480156200009857600080fd5b50620000b76004803603810190620000b19190620009a9565b6200021f565b604051620000c6919062000bf0565b60405180910390f35b348015620000dc57600080fd5b50620000fb6004803603810190620000f5919062000a7f565b62000268565b6040516200010a919062000bf0565b60405180910390f35b3480156200012057600080fd5b506200012b620002a8565b005b3480156200013a57600080fd5b5062000159600480360381019062000153919062000977565b620004cd565b60405162000168919062000cb0565b60405180910390f35b6200017b620004e5565b005b3480156200018a57600080fd5b5062000195620005a2565b604051620001a4919062000cb0565b60405180910390f35b348015620001ba57600080fd5b50620001d96004803603810190620001d3919062000a7f565b620005af565b604051620001e8919062000bf0565b60405180910390f35b348015620001fe57600080fd5b506200021d6004803603810190620002179190620009fa565b620005ef565b005b6001818051602081018201805184825260208301602085012081835280955050505050506000915054906101000a900473ffffffffffffffffffffffffffffffffffffffff1681565b600081815481106200027957600080fd5b906000526020600020016000915054906101000a900473ffffffffffffffffffffffffffffffffffffffff1681565b600560009054906101000a900473ffffffffffffffffffffffffffffffffffffffff1673ffffffffffffffffffffffffffffffffffffffff163373ffffffffffffffffffffffffffffffffffffffff16146200030357600080fd5b60005b600380549050811015620003b0576000600460006003848154811062000331576200033062000ef1565b5b9060005260206000200160009054906101000a900473ffffffffffffffffffffffffffffffffffffffff1673ffffffffffffffffffffffffffffffffffffffff1673ffffffffffffffffffffffffffffffffffffffff168152602001908152602001600020819055508080620003a79062000e74565b91505062000306565b50600067ffffffffffffffff811115620003cf57620003ce62000f20565b5b604051908082528060200260200182016040528015620003fe5781602001602082028036833780820191505090505b5060039080519060200190620004169291906200080f565b5060003373ffffffffffffffffffffffffffffffffffffffff16476040516200043f9062000bd9565b60006040518083038185875af1925050503d80600081146200047e576040519150601f19603f3d011682016040523d82523d6000602084013e62000483565b606091505b5050905080620004ca576040517f08c379a0000000000000000000000000000000000000000000000000000000008152600401620004c19062000c8e565b60405180910390fd5b50565b60046020528060005260406000206000915090505481565b6003339080600181540180825580915050600190039060005260206000200160009091909190916101000a81548173ffffffffffffffffffffffffffffffffffffffff021916908373ffffffffffffffffffffffffffffffffffffffff16021790555034600460003373ffffffffffffffffffffffffffffffffffffffff1673ffffffffffffffffffffffffffffffffffffffff168152602001908152602001600020600082825462000599919062000d5e565b92505081905550565b6000804790508091505090565b60038181548110620005c057600080fd5b906000526020600020016000915054906101000a900473ffffffffffffffffffffffffffffffffffffffff1681565b8160008160405160200162000605919062000c0d565b6040516020818303038152906040528051906020012090506000600280549050905060005b81811015620006ae57600281815481106200064a576200064962000ef1565b5b90600052602060002001548314156200069a576040517f08c379a0000000000000000000000000000000000000000000000000000000008152600401620006919062000c6c565b60405180910390fd5b80620006a69062000e74565b90506200062a565b50600085604051602001620006c4919062000c0d565b60405160208183030381529060405280519060200120905060028190806001815401808255809150506001900390600052602060002001600090919091909150556000868660405162000717906200089e565b6200072492919062000c31565b604051809103906000f08015801562000741573d6000803e3d6000fd5b5090506000819080600181540180825580915050600190039060005260206000200160009091909190916101000a81548173ffffffffffffffffffffffffffffffffffffffff021916908373ffffffffffffffffffffffffffffffffffffffff16021790555080600188604051620007ba919062000bc0565b908152602001604051809103902060006101000a81548173ffffffffffffffffffffffffffffffffffffffff021916908373ffffffffffffffffffffffffffffffffffffffff16021790555050505050505050565b8280548282559060005260206000209081019282156200088b579160200282015b828111156200088a5782518260006101000a81548173ffffffffffffffffffffffffffffffffffffffff021916908373ffffffffffffffffffffffffffffffffffffffff1602179055509160200191906001019062000830565b5b5090506200089a9190620008ac565b5090565b6109aa8062000ffe83390190565b5b80821115620008c7576000816000905550600101620008ad565b5090565b6000620008e2620008dc8462000cf6565b62000ccd565b90508281526020810184848401111562000901576200090062000f54565b5b6200090e84828562000df9565b509392505050565b600081359050620009278162000fc9565b92915050565b600082601f83011262000945576200094462000f4f565b5b813562000957848260208601620008cb565b91505092915050565b600081359050620009718162000fe3565b92915050565b60006020828403121562000990576200098f62000f5e565b5b6000620009a08482850162000916565b91505092915050565b600060208284031215620009c257620009c162000f5e565b5b600082013567ffffffffffffffff811115620009e357620009e262000f59565b5b620009f1848285016200092d565b91505092915050565b6000806040838503121562000a145762000a1362000f5e565b5b600083013567ffffffffffffffff81111562000a355762000a3462000f59565b5b62000a43858286016200092d565b925050602083013567ffffffffffffffff81111562000a675762000a6662000f59565b5b62000a75858286016200092d565b9150509250929050565b60006020828403121562000a985762000a9762000f5e565b5b600062000aa88482850162000960565b91505092915050565b62000abc8162000dbb565b82525050565b600062000acf8262000d2c565b62000adb818562000d42565b935062000aed81856020860162000e08565b62000af88162000f63565b840191505092915050565b600062000b108262000d2c565b62000b1c818562000d53565b935062000b2e81856020860162000e08565b80840191505092915050565b600062000b49601c8362000d42565b915062000b568262000f74565b602082019050919050565b600062000b70600b8362000d42565b915062000b7d8262000f9d565b602082019050919050565b600062000b9760008362000d37565b915062000ba48262000fc6565b600082019050919050565b62000bba8162000def565b82525050565b600062000bce828462000b03565b915081905092915050565b600062000be68262000b88565b9150819050919050565b600060208201905062000c07600083018462000ab1565b92915050565b6000602082019050818103600083015262000c29818462000ac2565b905092915050565b6000604082019050818103600083015262000c4d818562000ac2565b9050818103602083015262000c63818462000ac2565b90509392505050565b6000602082019050818103600083015262000c878162000b3a565b9050919050565b6000602082019050818103600083015262000ca98162000b61565b9050919050565b600060208201905062000cc7600083018462000baf565b92915050565b600062000cd962000cec565b905062000ce7828262000e3e565b919050565b6000604051905090565b600067ffffffffffffffff82111562000d145762000d1362000f20565b5b62000d1f8262000f63565b9050602081019050919050565b600081519050919050565b600081905092915050565b600082825260208201905092915050565b600081905092915050565b600062000d6b8262000def565b915062000d788362000def565b9250827fffffffffffffffffffffffffffffffffffffffffffffffffffffffffffffffff0382111562000db05762000daf62000ec2565b5b828201905092915050565b600062000dc88262000dcf565b9050919050565b600073ffffffffffffffffffffffffffffffffffffffff82169050919050565b6000819050919050565b82818337600083830152505050565b60005b8381101562000e2857808201518184015260208101905062000e0b565b8381111562000e38576000848401525b50505050565b62000e498262000f63565b810181811067ffffffffffffffff8211171562000e6b5762000e6a62000f20565b5b80604052505050565b600062000e818262000def565b91507fffffffffffffffffffffffffffffffffffffffffffffffffffffffffffffffff82141562000eb75762000eb662000ec2565b5b600182019050919050565b7f4e487b7100000000000000000000000000000000000000000000000000000000600052601160045260246000fd5b7f4e487b7100000000000000000000000000000000000000000000000000000000600052603260045260246000fd5b7f4e487b7100000000000000000000000000000000000000000000000000000000600052604160045260246000fd5b600080fd5b600080fd5b600080fd5b600080fd5b6000601f19601f8301169050919050565b7f204e616d652048617320416c7265616479204265656e2074616b656e00000000600082015250565b7f63616c6c204661696c6564000000000000000000000000000000000000000000600082015250565b50565b62000fd48162000dbb565b811462000fe057600080fd5b50565b62000fee8162000def565b811462000ffa57600080fd5b5056fe60806040523480156200001157600080fd5b50604051620009aa380380620009aa8339818101604052810190620000379190620001c7565b33600360006101000a81548173ffffffffffffffffffffffffffffffffffffffff021916908373ffffffffffffffffffffffffffffffffffffffff16021790555080600490805190602001906200009092919062000099565b505050620003d0565b828054620000a790620002e1565b90600052602060002090601f016020900481019282620000cb576000855562000117565b82601f10620000e657805160ff191683800117855562000117565b8280016001018555821562000117579182015b8281111562000116578251825591602001919060010190620000f9565b5b5090506200012691906200012a565b5090565b5b80821115620001455760008160009055506001016200012b565b5090565b6000620001606200015a8462000275565b6200024c565b9050828152602081018484840111156200017f576200017e620003b0565b5b6200018c848285620002ab565b509392505050565b600082601f830112620001ac57620001ab620003ab565b5b8151620001be84826020860162000149565b91505092915050565b60008060408385031215620001e157620001e0620003ba565b5b600083015167ffffffffffffffff811115620002025762000201620003b5565b5b620002108582860162000194565b925050602083015167ffffffffffffffff811115620002345762000233620003b5565b5b620002428582860162000194565b9150509250929050565b6000620002586200026b565b905062000266828262000317565b919050565b6000604051905090565b600067ffffffffffffffff8211156200029357620002926200037c565b5b6200029e82620003bf565b9050602081019050919050565b60005b83811015620002cb578082015181840152602081019050620002ae565b83811115620002db576000848401525b50505050565b60006002820490506001821680620002fa57607f821691505b602082108114156200031157620003106200034d565b5b50919050565b6200032282620003bf565b810181811067ffffffffffffffff821117156200034457620003436200037c565b5b80604052505050565b7f4e487b7100000000000000000000000000000000000000000000000000000000600052602260045260246000fd5b7f4e487b7100000000000000000000000000000000000000000000000000000000600052604160045260246000fd5b600080fd5b600080fd5b600080fd5b600080fd5b6000601f19601f8301169050919050565b6105ca80620003e06000396000f3fe60806040526004361061003f5760003560e01c80630724fda9146100445780633ccfd60b1461006f5780637284e41614610086578063ed88c68e146100b1575b600080fd5b34801561005057600080fd5b506100596100bb565b604051610066919061041f565b60405180910390f35b34801561007b57600080fd5b50610084610149565b005b34801561009257600080fd5b5061009b610269565b6040516100a8919061041f565b60405180910390f35b6100b96102f7565b005b600580546100c8906104d0565b80601f01602080910402602001604051908101604052809291908181526020018280546100f4906104d0565b80156101415780601f1061011657610100808354040283529160200191610141565b820191906000526020600020905b81548152906001019060200180831161012457829003601f168201915b505050505081565b600360009054906101000a900473ffffffffffffffffffffffffffffffffffffffff1673ffffffffffffffffffffffffffffffffffffffff163373ffffffffffffffffffffffffffffffffffffffff16146101a357600080fd5b600047905060008114156101ec576040517f08c379a00000000000000000000000000000000000000000000000000000000081526004016101e390610441565b60405180910390fd5b60003373ffffffffffffffffffffffffffffffffffffffff166108fc479081150290604051600060405180830381858888f19350505050905080610265576040517f08c379a000000000000000000000000000000000000000000000000000000000815260040161025c90610461565b60405180910390fd5b5050565b60048054610276906104d0565b80601f01602080910402602001604051908101604052809291908181526020018280546102a2906104d0565b80156102ef5780601f106102c4576101008083540402835291602001916102ef565b820191906000526020600020905b8154815290600101906020018083116102d257829003601f168201915b505050505081565b6002339080600181540180825580915050600190039060005260206000200160009091909190916101000a81548173ffffffffffffffffffffffffffffffffffffffff021916908373ffffffffffffffffffffffffffffffffffffffff16021790555034600160003373ffffffffffffffffffffffffffffffffffffffff1673ffffffffffffffffffffffffffffffffffffffff16815260200190815260200160002081905550565b60006103ab82610481565b6103b5818561048c565b93506103c581856020860161049d565b6103ce81610531565b840191505092915050565b60006103e660158361048c565b91506103f182610542565b602082019050919050565b600061040960128361048c565b91506104148261056b565b602082019050919050565b6000602082019050818103600083015261043981846103a0565b905092915050565b6000602082019050818103600083015261045a816103d9565b9050919050565b6000602082019050818103600083015261047a816103fc565b9050919050565b600081519050919050565b600082825260208201905092915050565b60005b838110156104bb5780820151818401526020810190506104a0565b838111156104ca576000848401525b50505050565b600060028204905060018216806104e857607f821691505b602082108114156104fc576104fb610502565b5b50919050565b7f4e487b7100000000000000000000000000000000000000000000000000000000600052602260045260246000fd5b6000601f19601f8301169050919050565b7f436f6e74726163742062616c616e636520697320300000000000000000000000600082015250565b7f4661696c656420746f2073656e6420455448000000000000000000000000000060008201525056fea264697066735822122008d46ac62089b1a9148c882dcedc55987e4fbaf5eeb5115cae7e86271e1b3c4164736f6c63430008070033a26469706673582212200d7f6945f848a6d206713ce99411d62cfda69ae26c3c19bcef187767bc01dd8d64736f6c63430008070033",
  "devdoc": {
    "kind": "dev",
    "methods": {
      "createDonate(string,string)": {
        "params": {
          "_description": "the need for the fundraising",
          "campaignName": "the firstname of the recipient"
        }
      }
    },
    "version": 1
  },
  "userdoc": {
    "kind": "user",
    "methods": {
      "createDonate(string,string)": {
        "notice": "This function creates Donate by calling constructor of Donate"
      }
    },
    "version": 1
  },
  "storageLayout": {
    "storage": [
      {
        "astId": 4,
        "contract": "contracts/Donate.sol:DonateFactory",
        "label": "deployedFundraisers",
        "offset": 0,
        "slot": "0",
        "type": "t_array(t_address)dyn_storage"
      },
      {
        "astId": 8,
        "contract": "contracts/Donate.sol:DonateFactory",
        "label": "nameToAddress",
        "offset": 0,
        "slot": "1",
        "type": "t_mapping(t_string_memory_ptr,t_address)"
      },
      {
        "astId": 11,
        "contract": "contracts/Donate.sol:DonateFactory",
        "label": "hashedAddressList",
        "offset": 0,
        "slot": "2",
        "type": "t_array(t_bytes32)dyn_storage"
      },
      {
        "astId": 106,
        "contract": "contracts/Donate.sol:DonateFactory",
        "label": "funders",
        "offset": 0,
        "slot": "3",
        "type": "t_array(t_address)dyn_storage"
      },
      {
        "astId": 110,
        "contract": "contracts/Donate.sol:DonateFactory",
        "label": "addressToAmountFunded",
        "offset": 0,
        "slot": "4",
        "type": "t_mapping(t_address,t_uint256)"
      },
      {
        "astId": 112,
        "contract": "contracts/Donate.sol:DonateFactory",
        "label": "i_owner",
        "offset": 0,
        "slot": "5",
        "type": "t_address"
      }
    ],
    "types": {
      "t_address": {
        "encoding": "inplace",
        "label": "address",
        "numberOfBytes": "20"
      },
      "t_array(t_address)dyn_storage": {
        "base": "t_address",
        "encoding": "dynamic_array",
        "label": "address[]",
        "numberOfBytes": "32"
      },
      "t_array(t_bytes32)dyn_storage": {
        "base": "t_bytes32",
        "encoding": "dynamic_array",
        "label": "bytes32[]",
        "numberOfBytes": "32"
      },
      "t_bytes32": {
        "encoding": "inplace",
        "label": "bytes32",
        "numberOfBytes": "32"
      },
      "t_mapping(t_address,t_uint256)": {
        "encoding": "mapping",
        "key": "t_address",
        "label": "mapping(address => uint256)",
        "numberOfBytes": "32",
        "value": "t_uint256"
      },
      "t_mapping(t_string_memory_ptr,t_address)": {
        "encoding": "mapping",
        "key": "t_string_memory_ptr",
        "label": "mapping(string => address)",
        "numberOfBytes": "32",
        "value": "t_address"
      },
      "t_string_memory_ptr": {
        "encoding": "bytes",
        "label": "string",
        "numberOfBytes": "32"
      },
      "t_uint256": {
        "encoding": "inplace",
        "label": "uint256",
        "numberOfBytes": "32"
      }
    }
  }
}